{
  "_format": "hh-sol-artifact-1",
  "contractName": "testdf",
  "sourceName": "contracts/testd.sol",
  "abi": [
    {
      "inputs": [
        {
          "internalType": "string",
          "name": "name",
          "type": "string"
        },
        {
          "internalType": "string",
          "name": "symbol",
          "type": "string"
        },
        {
          "internalType": "string",
          "name": "_BASE_URI",
          "type": "string"
        },
        {
          "internalType": "address",
          "name": "passContractAddress",
          "type": "address"
        }
      ],
      "stateMutability": "nonpayable",
      "type": "constructor"
    },
    {
      "anonymous": false,
      "inputs": [
        {
          "indexed": true,
          "internalType": "address",
          "name": "owner",
          "type": "address"
        },
        {
          "indexed": true,
          "internalType": "address",
          "name": "approved",
          "type": "address"
        },
        {
          "indexed": true,
          "internalType": "uint256",
          "name": "tokenId",
          "type": "uint256"
        }
      ],
      "name": "Approval",
      "type": "event"
    },
    {
      "anonymous": false,
      "inputs": [
        {
          "indexed": true,
          "internalType": "address",
          "name": "owner",
          "type": "address"
        },
        {
          "indexed": true,
          "internalType": "address",
          "name": "operator",
          "type": "address"
        },
        {
          "indexed": false,
          "internalType": "bool",
          "name": "approved",
          "type": "bool"
        }
      ],
      "name": "ApprovalForAll",
      "type": "event"
    },
    {
      "anonymous": false,
      "inputs": [
        {
          "indexed": true,
          "internalType": "address",
          "name": "previousOwner",
          "type": "address"
        },
        {
          "indexed": true,
          "internalType": "address",
          "name": "newOwner",
          "type": "address"
        }
      ],
      "name": "OwnershipTransferred",
      "type": "event"
    },
    {
      "anonymous": false,
      "inputs": [
        {
          "indexed": true,
          "internalType": "address",
          "name": "from",
          "type": "address"
        },
        {
          "indexed": true,
          "internalType": "address",
          "name": "to",
          "type": "address"
        },
        {
          "indexed": true,
          "internalType": "uint256",
          "name": "tokenId",
          "type": "uint256"
        }
      ],
      "name": "Transfer",
      "type": "event"
    },
    {
      "inputs": [],
      "name": "IS_OG_SALE_ACTIVE",
      "outputs": [
        {
          "internalType": "bool",
          "name": "",
          "type": "bool"
        }
      ],
      "stateMutability": "view",
      "type": "function"
    },
    {
      "inputs": [],
      "name": "IS_PRE_SALE_ACTIVE",
      "outputs": [
        {
          "internalType": "bool",
          "name": "",
          "type": "bool"
        }
      ],
      "stateMutability": "view",
      "type": "function"
    },
    {
      "inputs": [],
      "name": "IS_PUBLIC_SALE_ACTIVE",
      "outputs": [
        {
          "internalType": "bool",
          "name": "",
          "type": "bool"
        }
      ],
      "stateMutability": "view",
      "type": "function"
    },
    {
      "inputs": [],
      "name": "MAX_SUPPLY",
      "outputs": [
        {
          "internalType": "uint256",
          "name": "",
          "type": "uint256"
        }
      ],
      "stateMutability": "view",
      "type": "function"
    },
    {
      "inputs": [
        {
          "internalType": "address",
          "name": "to",
          "type": "address"
        },
        {
          "internalType": "uint256",
          "name": "tokenId",
          "type": "uint256"
        }
      ],
      "name": "approve",
      "outputs": [],
      "stateMutability": "nonpayable",
      "type": "function"
    },
    {
      "inputs": [
        {
          "internalType": "address",
          "name": "owner",
          "type": "address"
        }
      ],
      "name": "balanceOf",
      "outputs": [
        {
          "internalType": "uint256",
          "name": "",
          "type": "uint256"
        }
      ],
      "stateMutability": "view",
      "type": "function"
    },
    {
      "inputs": [
        {
          "internalType": "uint256",
          "name": "tokenId",
          "type": "uint256"
        }
      ],
      "name": "getApproved",
      "outputs": [
        {
          "internalType": "address",
          "name": "",
          "type": "address"
        }
      ],
      "stateMutability": "view",
      "type": "function"
    },
    {
      "inputs": [
        {
          "internalType": "address",
          "name": "owner",
          "type": "address"
        },
        {
          "internalType": "address",
          "name": "operator",
          "type": "address"
        }
      ],
      "name": "isApprovedForAll",
      "outputs": [
        {
          "internalType": "bool",
          "name": "",
          "type": "bool"
        }
      ],
      "stateMutability": "view",
      "type": "function"
    },
    {
      "inputs": [],
      "name": "name",
      "outputs": [
        {
          "internalType": "string",
          "name": "",
          "type": "string"
        }
      ],
      "stateMutability": "view",
      "type": "function"
    },
    {
      "inputs": [
        {
          "internalType": "uint256",
          "name": "quantity",
          "type": "uint256"
        }
      ],
      "name": "ogSale",
      "outputs": [],
      "stateMutability": "payable",
      "type": "function"
    },
    {
      "inputs": [],
      "name": "owner",
      "outputs": [
        {
          "internalType": "address",
          "name": "",
          "type": "address"
        }
      ],
      "stateMutability": "view",
      "type": "function"
    },
    {
      "inputs": [
        {
          "internalType": "uint256",
          "name": "numberOfTokens",
          "type": "uint256"
        }
      ],
      "name": "ownerMint",
      "outputs": [],
      "stateMutability": "nonpayable",
      "type": "function"
    },
    {
      "inputs": [
        {
          "internalType": "uint256",
          "name": "tokenId",
          "type": "uint256"
        }
      ],
      "name": "ownerOf",
      "outputs": [
        {
          "internalType": "address",
          "name": "",
          "type": "address"
        }
      ],
      "stateMutability": "view",
      "type": "function"
    },
    {
      "inputs": [
        {
          "internalType": "uint256",
          "name": "quantity",
          "type": "uint256"
        }
      ],
      "name": "preSale",
      "outputs": [],
      "stateMutability": "payable",
      "type": "function"
    },
    {
      "inputs": [
        {
          "internalType": "uint256",
          "name": "quantity",
          "type": "uint256"
        }
      ],
      "name": "publicSale",
      "outputs": [],
      "stateMutability": "payable",
      "type": "function"
    },
    {
      "inputs": [],
      "name": "renounceOwnership",
      "outputs": [],
      "stateMutability": "nonpayable",
      "type": "function"
    },
    {
      "inputs": [],
      "name": "root",
      "outputs": [
        {
          "internalType": "bytes32",
          "name": "",
          "type": "bytes32"
        }
      ],
      "stateMutability": "view",
      "type": "function"
    },
    {
      "inputs": [
        {
          "internalType": "address",
          "name": "from",
          "type": "address"
        },
        {
          "internalType": "address",
          "name": "to",
          "type": "address"
        },
        {
          "internalType": "uint256",
          "name": "tokenId",
          "type": "uint256"
        }
      ],
      "name": "safeTransferFrom",
      "outputs": [],
      "stateMutability": "nonpayable",
      "type": "function"
    },
    {
      "inputs": [
        {
          "internalType": "address",
          "name": "from",
          "type": "address"
        },
        {
          "internalType": "address",
          "name": "to",
          "type": "address"
        },
        {
          "internalType": "uint256",
          "name": "tokenId",
          "type": "uint256"
        },
        {
          "internalType": "bytes",
          "name": "_data",
          "type": "bytes"
        }
      ],
      "name": "safeTransferFrom",
      "outputs": [],
      "stateMutability": "nonpayable",
      "type": "function"
    },
    {
      "inputs": [
        {
          "internalType": "address",
          "name": "operator",
          "type": "address"
        },
        {
          "internalType": "bool",
          "name": "approved",
          "type": "bool"
        }
      ],
      "name": "setApprovalForAll",
      "outputs": [],
      "stateMutability": "nonpayable",
      "type": "function"
    },
    {
      "inputs": [
        {
          "internalType": "string",
          "name": "newUri",
          "type": "string"
        }
      ],
      "name": "setBaseURI",
      "outputs": [],
      "stateMutability": "nonpayable",
      "type": "function"
    },
    {
      "inputs": [
        {
          "internalType": "address",
          "name": "_contractAddress",
          "type": "address"
        }
      ],
      "name": "setPassContractAddress",
      "outputs": [],
      "stateMutability": "nonpayable",
      "type": "function"
    },
    {
      "inputs": [
        {
          "internalType": "bytes4",
          "name": "interfaceId",
          "type": "bytes4"
        }
      ],
      "name": "supportsInterface",
      "outputs": [
        {
          "internalType": "bool",
          "name": "",
          "type": "bool"
        }
      ],
      "stateMutability": "view",
      "type": "function"
    },
    {
      "inputs": [],
      "name": "symbol",
      "outputs": [
        {
          "internalType": "string",
          "name": "",
          "type": "string"
        }
      ],
      "stateMutability": "view",
      "type": "function"
    },
    {
      "inputs": [],
      "name": "toggleOGSale",
      "outputs": [],
      "stateMutability": "nonpayable",
      "type": "function"
    },
    {
      "inputs": [],
      "name": "togglePreSale",
      "outputs": [],
      "stateMutability": "nonpayable",
      "type": "function"
    },
    {
      "inputs": [],
      "name": "togglePublicSale",
      "outputs": [],
      "stateMutability": "nonpayable",
      "type": "function"
    },
    {
      "inputs": [
        {
          "internalType": "uint256",
          "name": "_tokenId",
          "type": "uint256"
        }
      ],
      "name": "tokenURI",
      "outputs": [
        {
          "internalType": "string",
          "name": "",
          "type": "string"
        }
      ],
      "stateMutability": "view",
      "type": "function"
    },
    {
      "inputs": [],
      "name": "totalSupply",
      "outputs": [
        {
          "internalType": "uint256",
          "name": "",
          "type": "uint256"
        }
      ],
      "stateMutability": "view",
      "type": "function"
    },
    {
      "inputs": [
        {
          "internalType": "address",
          "name": "from",
          "type": "address"
        },
        {
          "internalType": "address",
          "name": "to",
          "type": "address"
        },
        {
          "internalType": "uint256",
          "name": "tokenId",
          "type": "uint256"
        }
      ],
      "name": "transferFrom",
      "outputs": [],
      "stateMutability": "nonpayable",
      "type": "function"
    },
    {
      "inputs": [
        {
          "internalType": "address",
          "name": "newOwner",
          "type": "address"
        }
      ],
      "name": "transferOwnership",
      "outputs": [],
      "stateMutability": "nonpayable",
      "type": "function"
    },
    {
      "inputs": [],
      "name": "withdrawFunds",
      "outputs": [],
      "stateMutability": "nonpayable",
      "type": "function"
    }
  ],
  "bytecode": "0x6080604052670de0b6b3a7640000600a55671158e460913d0000600b556714d1120d7b160000600c556000600d60006101000a81548160ff0219169083151502179055506000600d60016101000a81548160ff0219169083151502179055506000600d60026101000a81548160ff0219169083151502179055503480156200008657600080fd5b5060405162004f3e38038062004f3e8339818101604052810190620000ac91906200039a565b83838160009080519060200190620000c692919062000261565b508060019080519060200190620000df92919062000261565b50505062000102620000f66200017d60201b60201c565b6200018560201b60201c565b80600f60006101000a81548173ffffffffffffffffffffffffffffffffffffffff021916908373ffffffffffffffffffffffffffffffffffffffff16021790555081600990805190602001906200015b92919062000261565b506200017360076200024b60201b620020c61760201c565b505050506200060f565b600033905090565b6000600660009054906101000a900473ffffffffffffffffffffffffffffffffffffffff16905081600660006101000a81548173ffffffffffffffffffffffffffffffffffffffff021916908373ffffffffffffffffffffffffffffffffffffffff1602179055508173ffffffffffffffffffffffffffffffffffffffff168173ffffffffffffffffffffffffffffffffffffffff167f8be0079c531659141344cd1fd0a4f28419497f9722a3daafe3b4186f6b6457e060405160405180910390a35050565b6001816000016000828254019250508190555050565b8280546200026f906200051a565b90600052602060002090601f016020900481019282620002935760008555620002df565b82601f10620002ae57805160ff1916838001178555620002df565b82800160010185558215620002df579182015b82811115620002de578251825591602001919060010190620002c1565b5b509050620002ee9190620002f2565b5090565b5b808211156200030d576000816000905550600101620002f3565b5090565b60006200032862000322846200047a565b62000451565b9050828152602081018484840111156200034157600080fd5b6200034e848285620004e4565b509392505050565b6000815190506200036781620005f5565b92915050565b600082601f8301126200037f57600080fd5b81516200039184826020860162000311565b91505092915050565b60008060008060808587031215620003b157600080fd5b600085015167ffffffffffffffff811115620003cc57600080fd5b620003da878288016200036d565b945050602085015167ffffffffffffffff811115620003f857600080fd5b62000406878288016200036d565b935050604085015167ffffffffffffffff8111156200042457600080fd5b62000432878288016200036d565b9250506060620004458782880162000356565b91505092959194509250565b60006200045d62000470565b90506200046b828262000550565b919050565b6000604051905090565b600067ffffffffffffffff821115620004985762000497620005b5565b5b620004a382620005e4565b9050602081019050919050565b6000620004bd82620004c4565b9050919050565b600073ffffffffffffffffffffffffffffffffffffffff82169050919050565b60005b8381101562000504578082015181840152602081019050620004e7565b8381111562000514576000848401525b50505050565b600060028204905060018216806200053357607f821691505b602082108114156200054a576200054962000586565b5b50919050565b6200055b82620005e4565b810181811067ffffffffffffffff821117156200057d576200057c620005b5565b5b80604052505050565b7f4e487b7100000000000000000000000000000000000000000000000000000000600052602260045260246000fd5b7f4e487b7100000000000000000000000000000000000000000000000000000000600052604160045260246000fd5b6000601f19601f8301169050919050565b6200060081620004b0565b81146200060c57600080fd5b50565b61491f806200061f6000396000f3fe6080604052600436106101e35760003560e01c80638da5cb5b11610102578063c87b56dd11610095578063e985e9c511610064578063e985e9c514610657578063ebf0c71714610694578063f19e75d4146106bf578063f2fde38b146106e8576101e3565b8063c87b56dd146105c1578063ca3cb522146105fe578063e222c7f914610615578063e94d75f31461062c576101e3565b8063a22cb465116100d1578063a22cb46514610528578063b287c8ed14610551578063b88d4fde1461056d578063bb20b54314610596576101e3565b80638da5cb5b146104905780638e70d274146104bb57806395d89b41146104e65780639980018514610511576101e3565b806324600fc31161017a5780636352211e116101495780636352211e146103e357806367418fc21461042057806370a082311461043c578063715018a614610479576101e3565b806324600fc31461034f57806332cb6b0c1461036657806342842e0e1461039157806355f804b3146103ba576101e3565b80630c153b49116101b65780630c153b49146102b6578063131f4104146102df57806318160ddd146102fb57806323b872dd14610326576101e3565b806301ffc9a7146101e857806306fdde0314610225578063081812fc14610250578063095ea7b31461028d575b600080fd5b3480156101f457600080fd5b5061020f600480360381019061020a919061339f565b610711565b60405161021c91906139af565b60405180910390f35b34801561023157600080fd5b5061023a6107f3565b60405161024791906139e5565b60405180910390f35b34801561025c57600080fd5b5061027760048036038101906102729190613432565b610885565b6040516102849190613948565b60405180910390f35b34801561029957600080fd5b506102b460048036038101906102af91906132f9565b61090a565b005b3480156102c257600080fd5b506102dd60048036038101906102d8919061318e565b610a22565b005b6102f960048036038101906102f49190613432565b610ae2565b005b34801561030757600080fd5b50610310610fb1565b60405161031d9190613d47565b60405180910390f35b34801561033257600080fd5b5061034d600480360381019061034891906131f3565b610fce565b005b34801561035b57600080fd5b5061036461102e565b005b34801561037257600080fd5b5061037b6110f3565b6040516103889190613d47565b60405180910390f35b34801561039d57600080fd5b506103b860048036038101906103b391906131f3565b6110f9565b005b3480156103c657600080fd5b506103e160048036038101906103dc91906133f1565b611119565b005b3480156103ef57600080fd5b5061040a60048036038101906104059190613432565b6111af565b6040516104179190613948565b60405180910390f35b61043a60048036038101906104359190613432565b611261565b005b34801561044857600080fd5b50610463600480360381019061045e919061318e565b611731565b6040516104709190613d47565b60405180910390f35b34801561048557600080fd5b5061048e6117e9565b005b34801561049c57600080fd5b506104a5611871565b6040516104b29190613948565b60405180910390f35b3480156104c757600080fd5b506104d061189b565b6040516104dd91906139af565b60405180910390f35b3480156104f257600080fd5b506104fb6118ae565b60405161050891906139e5565b60405180910390f35b34801561051d57600080fd5b50610526611940565b005b34801561053457600080fd5b5061054f600480360381019061054a91906132bd565b6119e8565b005b61056b60048036038101906105669190613432565b6119fe565b005b34801561057957600080fd5b50610594600480360381019061058f9190613242565b611bd6565b005b3480156105a257600080fd5b506105ab611c38565b6040516105b891906139af565b60405180910390f35b3480156105cd57600080fd5b506105e860048036038101906105e39190613432565b611c4b565b6040516105f591906139e5565b60405180910390f35b34801561060a57600080fd5b50610613611ccd565b005b34801561062157600080fd5b5061062a611d75565b005b34801561063857600080fd5b50610641611e1d565b60405161064e91906139af565b60405180910390f35b34801561066357600080fd5b5061067e600480360381019061067991906131b7565b611e30565b60405161068b91906139af565b60405180910390f35b3480156106a057600080fd5b506106a9611ec4565b6040516106b691906139ca565b60405180910390f35b3480156106cb57600080fd5b506106e660048036038101906106e19190613432565b611eca565b005b3480156106f457600080fd5b5061070f600480360381019061070a919061318e565b611fce565b005b60007f80ac58cd000000000000000000000000000000000000000000000000000000007bffffffffffffffffffffffffffffffffffffffffffffffffffffffff1916827bffffffffffffffffffffffffffffffffffffffffffffffffffffffff191614806107dc57507f5b5e139f000000000000000000000000000000000000000000000000000000007bffffffffffffffffffffffffffffffffffffffffffffffffffffffff1916827bffffffffffffffffffffffffffffffffffffffffffffffffffffffff1916145b806107ec57506107eb826120dc565b5b9050919050565b60606000805461080290614075565b80601f016020809104026020016040519081016040528092919081815260200182805461082e90614075565b801561087b5780601f106108505761010080835404028352916020019161087b565b820191906000526020600020905b81548152906001019060200180831161085e57829003601f168201915b5050505050905090565b600061089082612146565b6108cf576040517f08c379a00000000000000000000000000000000000000000000000000000000081526004016108c690613c67565b60405180910390fd5b6004600083815260200190815260200160002060009054906101000a900473ffffffffffffffffffffffffffffffffffffffff169050919050565b6000610915826111af565b90508073ffffffffffffffffffffffffffffffffffffffff168373ffffffffffffffffffffffffffffffffffffffff161415610986576040517f08c379a000000000000000000000000000000000000000000000000000000000815260040161097d90613ce7565b60405180910390fd5b8073ffffffffffffffffffffffffffffffffffffffff166109a56121b2565b73ffffffffffffffffffffffffffffffffffffffff1614806109d457506109d3816109ce6121b2565b611e30565b5b610a13576040517f08c379a0000000000000000000000000000000000000000000000000000000008152600401610a0a90613bc7565b60405180910390fd5b610a1d83836121ba565b505050565b610a2a6121b2565b73ffffffffffffffffffffffffffffffffffffffff16610a48611871565b73ffffffffffffffffffffffffffffffffffffffff1614610a9e576040517f08c379a0000000000000000000000000000000000000000000000000000000008152600401610a9590613ca7565b60405180910390fd5b80600f60006101000a81548173ffffffffffffffffffffffffffffffffffffffff021916908373ffffffffffffffffffffffffffffffffffffffff16021790555050565b3273ffffffffffffffffffffffffffffffffffffffff163373ffffffffffffffffffffffffffffffffffffffff1614610b50576040517f08c379a0000000000000000000000000000000000000000000000000000000008152600401610b4790613d07565b60405180910390fd5b600d60019054906101000a900460ff16610b9f576040517f08c379a0000000000000000000000000000000000000000000000000000000008152600401610b9690613c87565b60405180910390fd5b6000610bab6007612273565b905061270f8282610bbc9190613e58565b10610bfc576040517f08c379a0000000000000000000000000000000000000000000000000000000008152600401610bf390613b87565b60405180910390fd5b610c0882600b54612281565b341015610c4a576040517f08c379a0000000000000000000000000000000000000000000000000000000008152600401610c4190613a27565b60405180910390fd5b600080600f60009054906101000a900473ffffffffffffffffffffffffffffffffffffffff1673ffffffffffffffffffffffffffffffffffffffff16638462151c336040518263ffffffff1660e01b8152600401610ca89190613948565b60006040518083038186803b158015610cc057600080fd5b505afa158015610cd4573d6000803e3d6000fd5b505050506040513d6000823e3d601f19601f82011682018060405250810190610cfd9190613335565b905060005b8151811015610eeb57600f60009054906101000a900473ffffffffffffffffffffffffffffffffffffffff1673ffffffffffffffffffffffffffffffffffffffff16634878f78f838381518110610d82577f4e487b7100000000000000000000000000000000000000000000000000000000600052603260045260246000fd5b60200260200101516040518263ffffffff1660e01b8152600401610da69190613d47565b602060405180830381600087803b158015610dc057600080fd5b505af1158015610dd4573d6000803e3d6000fd5b505050506040513d601f19601f82011682018060405250810190610df89190613376565b610ed857600f60009054906101000a900473ffffffffffffffffffffffffffffffffffffffff1673ffffffffffffffffffffffffffffffffffffffff166342966c68838381518110610e73577f4e487b7100000000000000000000000000000000000000000000000000000000600052603260045260246000fd5b60200260200101516040518263ffffffff1660e01b8152600401610e979190613d47565b600060405180830381600087803b158015610eb157600080fd5b505af1158015610ec5573d6000803e3d6000fd5b505050508280610ed490614121565b9350505b8080610ee3906140d8565b915050610d02565b5060008260ff1611610f32576040517f08c379a0000000000000000000000000000000000000000000000000000000008152600401610f2990613b47565b60405180910390fd5b83600583610f409190613f39565b60ff161015610f84576040517f08c379a0000000000000000000000000000000000000000000000000000000008152600401610f7b90613c27565b60405180910390fd5b60005b84811015610faa57610f976122c7565b8080610fa2906140d8565b915050610f87565b5050505050565b60006001610fbf6007612273565b610fc99190613f74565b905090565b610fdf610fd96121b2565b82612341565b61101e576040517f08c379a000000000000000000000000000000000000000000000000000000000815260040161101590613d27565b60405180910390fd5b61102983838361241f565b505050565b6110366121b2565b73ffffffffffffffffffffffffffffffffffffffff16611054611871565b73ffffffffffffffffffffffffffffffffffffffff16146110aa576040517f08c379a00000000000000000000000000000000000000000000000000000000081526004016110a190613ca7565b60405180910390fd5b3373ffffffffffffffffffffffffffffffffffffffff166108fc479081150290604051600060405180830381858888f193505050501580156110f0573d6000803e3d6000fd5b50565b61270f81565b61111483838360405180602001604052806000815250611bd6565b505050565b6111216121b2565b73ffffffffffffffffffffffffffffffffffffffff1661113f611871565b73ffffffffffffffffffffffffffffffffffffffff1614611195576040517f08c379a000000000000000000000000000000000000000000000000000000000815260040161118c90613ca7565b60405180910390fd5b80600990805190602001906111ab929190612ef2565b5050565b6000806002600084815260200190815260200160002060009054906101000a900473ffffffffffffffffffffffffffffffffffffffff169050600073ffffffffffffffffffffffffffffffffffffffff168173ffffffffffffffffffffffffffffffffffffffff161415611258576040517f08c379a000000000000000000000000000000000000000000000000000000000815260040161124f90613c07565b60405180910390fd5b80915050919050565b3273ffffffffffffffffffffffffffffffffffffffff163373ffffffffffffffffffffffffffffffffffffffff16146112cf576040517f08c379a00000000000000000000000000000000000000000000000000000000081526004016112c690613d07565b60405180910390fd5b600d60009054906101000a900460ff1661131e576040517f08c379a000000000000000000000000000000000000000000000000000000000815260040161131590613ae7565b60405180910390fd5b600061132a6007612273565b905061270f828261133b9190613e58565b1061137b576040517f08c379a000000000000000000000000000000000000000000000000000000000815260040161137290613b87565b60405180910390fd5b61138782600a54612281565b3410156113c9576040517f08c379a00000000000000000000000000000000000000000000000000000000081526004016113c090613a27565b60405180910390fd5b600080600f60009054906101000a900473ffffffffffffffffffffffffffffffffffffffff1673ffffffffffffffffffffffffffffffffffffffff16638462151c336040518263ffffffff1660e01b81526004016114279190613948565b60006040518083038186803b15801561143f57600080fd5b505afa158015611453573d6000803e3d6000fd5b505050506040513d6000823e3d601f19601f8201168201806040525081019061147c9190613335565b905060005b815181101561166b57600f60009054906101000a900473ffffffffffffffffffffffffffffffffffffffff1673ffffffffffffffffffffffffffffffffffffffff16634878f78f838381518110611501577f4e487b7100000000000000000000000000000000000000000000000000000000600052603260045260246000fd5b60200260200101516040518263ffffffff1660e01b81526004016115259190613d47565b602060405180830381600087803b15801561153f57600080fd5b505af1158015611553573d6000803e3d6000fd5b505050506040513d601f19601f820116820180604052508101906115779190613376565b1561165857600f60009054906101000a900473ffffffffffffffffffffffffffffffffffffffff1673ffffffffffffffffffffffffffffffffffffffff166342966c688383815181106115f3577f4e487b7100000000000000000000000000000000000000000000000000000000600052603260045260246000fd5b60200260200101516040518263ffffffff1660e01b81526004016116179190613d47565b600060405180830381600087803b15801561163157600080fd5b505af1158015611645573d6000803e3d6000fd5b50505050828061165490614121565b9350505b8080611663906140d8565b915050611481565b5060008260ff16116116b2576040517f08c379a00000000000000000000000000000000000000000000000000000000081526004016116a990613a07565b60405180910390fd5b836005836116c09190613f39565b60ff161015611704576040517f08c379a00000000000000000000000000000000000000000000000000000000081526004016116fb90613c27565b60405180910390fd5b60005b8481101561172a576117176122c7565b8080611722906140d8565b915050611707565b5050505050565b60008073ffffffffffffffffffffffffffffffffffffffff168273ffffffffffffffffffffffffffffffffffffffff1614156117a2576040517f08c379a000000000000000000000000000000000000000000000000000000000815260040161179990613be7565b60405180910390fd5b600360008373ffffffffffffffffffffffffffffffffffffffff1673ffffffffffffffffffffffffffffffffffffffff168152602001908152602001600020549050919050565b6117f16121b2565b73ffffffffffffffffffffffffffffffffffffffff1661180f611871565b73ffffffffffffffffffffffffffffffffffffffff1614611865576040517f08c379a000000000000000000000000000000000000000000000000000000000815260040161185c90613ca7565b60405180910390fd5b61186f6000612686565b565b6000600660009054906101000a900473ffffffffffffffffffffffffffffffffffffffff16905090565b600d60019054906101000a900460ff1681565b6060600180546118bd90614075565b80601f01602080910402602001604051908101604052809291908181526020018280546118e990614075565b80156119365780601f1061190b57610100808354040283529160200191611936565b820191906000526020600020905b81548152906001019060200180831161191957829003601f168201915b5050505050905090565b6119486121b2565b73ffffffffffffffffffffffffffffffffffffffff16611966611871565b73ffffffffffffffffffffffffffffffffffffffff16146119bc576040517f08c379a00000000000000000000000000000000000000000000000000000000081526004016119b390613ca7565b60405180910390fd5b600d60009054906101000a900460ff1615600d60006101000a81548160ff021916908315150217905550565b6119fa6119f36121b2565b838361274c565b5050565b3273ffffffffffffffffffffffffffffffffffffffff163373ffffffffffffffffffffffffffffffffffffffff1614611a6c576040517f08c379a0000000000000000000000000000000000000000000000000000000008152600401611a6390613d07565b60405180910390fd5b600d60029054906101000a900460ff16611abb576040517f08c379a0000000000000000000000000000000000000000000000000000000008152600401611ab290613b67565b60405180910390fd5b6000611ac76007612273565b905061270f8282611ad89190613e58565b10611b18576040517f08c379a0000000000000000000000000000000000000000000000000000000008152600401611b0f90613b87565b60405180910390fd5b600a8210611b5b576040517f08c379a0000000000000000000000000000000000000000000000000000000008152600401611b5290613ac7565b60405180910390fd5b81600c54611b699190613edf565b341015611bab576040517f08c379a0000000000000000000000000000000000000000000000000000000008152600401611ba290613a27565b60405180910390fd5b60005b82811015611bd157611bbe6122c7565b8080611bc9906140d8565b915050611bae565b505050565b611be7611be16121b2565b83612341565b611c26576040517f08c379a0000000000000000000000000000000000000000000000000000000008152600401611c1d90613d27565b60405180910390fd5b611c32848484846128b9565b50505050565b600d60009054906101000a900460ff1681565b6060611c5682612146565b611c95576040517f08c379a0000000000000000000000000000000000000000000000000000000008152600401611c8c90613cc7565b60405180910390fd5b611c9d612915565b611ca6836129a7565b604051602001611cb792919061390e565b6040516020818303038152906040529050919050565b611cd56121b2565b73ffffffffffffffffffffffffffffffffffffffff16611cf3611871565b73ffffffffffffffffffffffffffffffffffffffff1614611d49576040517f08c379a0000000000000000000000000000000000000000000000000000000008152600401611d4090613ca7565b60405180910390fd5b600d60019054906101000a900460ff1615600d60016101000a81548160ff021916908315150217905550565b611d7d6121b2565b73ffffffffffffffffffffffffffffffffffffffff16611d9b611871565b73ffffffffffffffffffffffffffffffffffffffff1614611df1576040517f08c379a0000000000000000000000000000000000000000000000000000000008152600401611de890613ca7565b60405180910390fd5b600d60029054906101000a900460ff1615600d60026101000a81548160ff021916908315150217905550565b600d60029054906101000a900460ff1681565b6000600560008473ffffffffffffffffffffffffffffffffffffffff1673ffffffffffffffffffffffffffffffffffffffff16815260200190815260200160002060008373ffffffffffffffffffffffffffffffffffffffff1673ffffffffffffffffffffffffffffffffffffffff16815260200190815260200160002060009054906101000a900460ff16905092915050565b60085481565b611ed26121b2565b73ffffffffffffffffffffffffffffffffffffffff16611ef0611871565b73ffffffffffffffffffffffffffffffffffffffff1614611f46576040517f08c379a0000000000000000000000000000000000000000000000000000000008152600401611f3d90613ca7565b60405180910390fd5b6000611f526007612273565b905061270f8282611f639190613e58565b10611fa3576040517f08c379a0000000000000000000000000000000000000000000000000000000008152600401611f9a90613b87565b60405180910390fd5b60005b82811015611fc957611fb66122c7565b8080611fc1906140d8565b915050611fa6565b505050565b611fd66121b2565b73ffffffffffffffffffffffffffffffffffffffff16611ff4611871565b73ffffffffffffffffffffffffffffffffffffffff161461204a576040517f08c379a000000000000000000000000000000000000000000000000000000000815260040161204190613ca7565b60405180910390fd5b600073ffffffffffffffffffffffffffffffffffffffff168173ffffffffffffffffffffffffffffffffffffffff1614156120ba576040517f08c379a00000000000000000000000000000000000000000000000000000000081526004016120b190613a67565b60405180910390fd5b6120c381612686565b50565b6001816000016000828254019250508190555050565b60007f01ffc9a7000000000000000000000000000000000000000000000000000000007bffffffffffffffffffffffffffffffffffffffffffffffffffffffff1916827bffffffffffffffffffffffffffffffffffffffffffffffffffffffff1916149050919050565b60008073ffffffffffffffffffffffffffffffffffffffff166002600084815260200190815260200160002060009054906101000a900473ffffffffffffffffffffffffffffffffffffffff1673ffffffffffffffffffffffffffffffffffffffff1614159050919050565b600033905090565b816004600083815260200190815260200160002060006101000a81548173ffffffffffffffffffffffffffffffffffffffff021916908373ffffffffffffffffffffffffffffffffffffffff160217905550808273ffffffffffffffffffffffffffffffffffffffff1661222d836111af565b73ffffffffffffffffffffffffffffffffffffffff167f8c5be1e5ebec7d5bd14f71427d1e84f3dd0314c0f7b2291e5b200ac8c7c3b92560405160405180910390a45050565b600081600001549050919050565b600060018311156122b257826703782dace9d90000836122a19190613f74565b6122ab9190613edf565b90506122c1565b81836122be9190613edf565b90505b92915050565b60006122d36007612273565b90506122df60076120c6565b600e60003373ffffffffffffffffffffffffffffffffffffffff1673ffffffffffffffffffffffffffffffffffffffff168152602001908152602001600020600081548092919061232f906140d8565b919050555061233e3382612b54565b50565b600061234c82612146565b61238b576040517f08c379a000000000000000000000000000000000000000000000000000000000815260040161238290613ba7565b60405180910390fd5b6000612396836111af565b90508073ffffffffffffffffffffffffffffffffffffffff168473ffffffffffffffffffffffffffffffffffffffff16148061240557508373ffffffffffffffffffffffffffffffffffffffff166123ed84610885565b73ffffffffffffffffffffffffffffffffffffffff16145b8061241657506124158185611e30565b5b91505092915050565b8273ffffffffffffffffffffffffffffffffffffffff1661243f826111af565b73ffffffffffffffffffffffffffffffffffffffff1614612495576040517f08c379a000000000000000000000000000000000000000000000000000000000815260040161248c90613a87565b60405180910390fd5b600073ffffffffffffffffffffffffffffffffffffffff168273ffffffffffffffffffffffffffffffffffffffff161415612505576040517f08c379a00000000000000000000000000000000000000000000000000000000081526004016124fc90613b07565b60405180910390fd5b612510838383612d2e565b61251b6000826121ba565b6001600360008573ffffffffffffffffffffffffffffffffffffffff1673ffffffffffffffffffffffffffffffffffffffff168152602001908152602001600020600082825461256b9190613f74565b925050819055506001600360008473ffffffffffffffffffffffffffffffffffffffff1673ffffffffffffffffffffffffffffffffffffffff16815260200190815260200160002060008282546125c29190613e58565b92505081905550816002600083815260200190815260200160002060006101000a81548173ffffffffffffffffffffffffffffffffffffffff021916908373ffffffffffffffffffffffffffffffffffffffff160217905550808273ffffffffffffffffffffffffffffffffffffffff168473ffffffffffffffffffffffffffffffffffffffff167fddf252ad1be2c89b69c2b068fc378daa952ba7f163c4a11628f55a4df523b3ef60405160405180910390a4612681838383612d33565b505050565b6000600660009054906101000a900473ffffffffffffffffffffffffffffffffffffffff16905081600660006101000a81548173ffffffffffffffffffffffffffffffffffffffff021916908373ffffffffffffffffffffffffffffffffffffffff1602179055508173ffffffffffffffffffffffffffffffffffffffff168173ffffffffffffffffffffffffffffffffffffffff167f8be0079c531659141344cd1fd0a4f28419497f9722a3daafe3b4186f6b6457e060405160405180910390a35050565b8173ffffffffffffffffffffffffffffffffffffffff168373ffffffffffffffffffffffffffffffffffffffff1614156127bb576040517f08c379a00000000000000000000000000000000000000000000000000000000081526004016127b290613b27565b60405180910390fd5b80600560008573ffffffffffffffffffffffffffffffffffffffff1673ffffffffffffffffffffffffffffffffffffffff16815260200190815260200160002060008473ffffffffffffffffffffffffffffffffffffffff1673ffffffffffffffffffffffffffffffffffffffff16815260200190815260200160002060006101000a81548160ff0219169083151502179055508173ffffffffffffffffffffffffffffffffffffffff168373ffffffffffffffffffffffffffffffffffffffff167f17307eab39ab6107e8899845ad3d59bd9653f200f220920489ca2b5937696c31836040516128ac91906139af565b60405180910390a3505050565b6128c484848461241f565b6128d084848484612d38565b61290f576040517f08c379a000000000000000000000000000000000000000000000000000000000815260040161290690613a47565b60405180910390fd5b50505050565b60606009805461292490614075565b80601f016020809104026020016040519081016040528092919081815260200182805461295090614075565b801561299d5780601f106129725761010080835404028352916020019161299d565b820191906000526020600020905b81548152906001019060200180831161298057829003601f168201915b5050505050905090565b606060008214156129ef576040518060400160405280600181526020017f30000000000000000000000000000000000000000000000000000000000000008152509050612b4f565b600082905060005b60008214612a21578080612a0a906140d8565b915050600a82612a1a9190613eae565b91506129f7565b60008167ffffffffffffffff811115612a63577f4e487b7100000000000000000000000000000000000000000000000000000000600052604160045260246000fd5b6040519080825280601f01601f191660200182016040528015612a955781602001600182028036833780820191505090505b5090505b60008514612b4857600182612aae9190613f74565b9150600a85612abd919061414b565b6030612ac99190613e58565b60f81b818381518110612b05577f4e487b7100000000000000000000000000000000000000000000000000000000600052603260045260246000fd5b60200101907effffffffffffffffffffffffffffffffffffffffffffffffffffffffffffff1916908160001a905350600a85612b419190613eae565b9450612a99565b8093505050505b919050565b600073ffffffffffffffffffffffffffffffffffffffff168273ffffffffffffffffffffffffffffffffffffffff161415612bc4576040517f08c379a0000000000000000000000000000000000000000000000000000000008152600401612bbb90613c47565b60405180910390fd5b612bcd81612146565b15612c0d576040517f08c379a0000000000000000000000000000000000000000000000000000000008152600401612c0490613aa7565b60405180910390fd5b612c1960008383612d2e565b6001600360008473ffffffffffffffffffffffffffffffffffffffff1673ffffffffffffffffffffffffffffffffffffffff1681526020019081526020016000206000828254612c699190613e58565b92505081905550816002600083815260200190815260200160002060006101000a81548173ffffffffffffffffffffffffffffffffffffffff021916908373ffffffffffffffffffffffffffffffffffffffff160217905550808273ffffffffffffffffffffffffffffffffffffffff16600073ffffffffffffffffffffffffffffffffffffffff167fddf252ad1be2c89b69c2b068fc378daa952ba7f163c4a11628f55a4df523b3ef60405160405180910390a4612d2a60008383612d33565b5050565b505050565b505050565b6000612d598473ffffffffffffffffffffffffffffffffffffffff16612ecf565b15612ec2578373ffffffffffffffffffffffffffffffffffffffff1663150b7a02612d826121b2565b8786866040518563ffffffff1660e01b8152600401612da49493929190613963565b602060405180830381600087803b158015612dbe57600080fd5b505af1925050508015612def57506040513d601f19601f82011682018060405250810190612dec91906133c8565b60015b612e72573d8060008114612e1f576040519150601f19603f3d011682016040523d82523d6000602084013e612e24565b606091505b50600081511415612e6a576040517f08c379a0000000000000000000000000000000000000000000000000000000008152600401612e6190613a47565b60405180910390fd5b805181602001fd5b63150b7a0260e01b7bffffffffffffffffffffffffffffffffffffffffffffffffffffffff1916817bffffffffffffffffffffffffffffffffffffffffffffffffffffffff191614915050612ec7565b600190505b949350505050565b6000808273ffffffffffffffffffffffffffffffffffffffff163b119050919050565b828054612efe90614075565b90600052602060002090601f016020900481019282612f205760008555612f67565b82601f10612f3957805160ff1916838001178555612f67565b82800160010185558215612f67579182015b82811115612f66578251825591602001919060010190612f4b565b5b509050612f749190612f78565b5090565b5b80821115612f91576000816000905550600101612f79565b5090565b6000612fa8612fa384613d87565b613d62565b90508083825260208201905082856020860282011115612fc757600080fd5b60005b85811015612ff75781612fdd8882613179565b845260208401935060208301925050600181019050612fca565b5050509392505050565b600061301461300f84613db3565b613d62565b90508281526020810184848401111561302c57600080fd5b613037848285614033565b509392505050565b600061305261304d84613de4565b613d62565b90508281526020810184848401111561306a57600080fd5b613075848285614033565b509392505050565b60008135905061308c8161488d565b92915050565b600082601f8301126130a357600080fd5b81516130b3848260208601612f95565b91505092915050565b6000813590506130cb816148a4565b92915050565b6000815190506130e0816148a4565b92915050565b6000813590506130f5816148bb565b92915050565b60008151905061310a816148bb565b92915050565b600082601f83011261312157600080fd5b8135613131848260208601613001565b91505092915050565b600082601f83011261314b57600080fd5b813561315b84826020860161303f565b91505092915050565b600081359050613173816148d2565b92915050565b600081519050613188816148d2565b92915050565b6000602082840312156131a057600080fd5b60006131ae8482850161307d565b91505092915050565b600080604083850312156131ca57600080fd5b60006131d88582860161307d565b92505060206131e98582860161307d565b9150509250929050565b60008060006060848603121561320857600080fd5b60006132168682870161307d565b93505060206132278682870161307d565b925050604061323886828701613164565b9150509250925092565b6000806000806080858703121561325857600080fd5b60006132668782880161307d565b94505060206132778782880161307d565b935050604061328887828801613164565b925050606085013567ffffffffffffffff8111156132a557600080fd5b6132b187828801613110565b91505092959194509250565b600080604083850312156132d057600080fd5b60006132de8582860161307d565b92505060206132ef858286016130bc565b9150509250929050565b6000806040838503121561330c57600080fd5b600061331a8582860161307d565b925050602061332b85828601613164565b9150509250929050565b60006020828403121561334757600080fd5b600082015167ffffffffffffffff81111561336157600080fd5b61336d84828501613092565b91505092915050565b60006020828403121561338857600080fd5b6000613396848285016130d1565b91505092915050565b6000602082840312156133b157600080fd5b60006133bf848285016130e6565b91505092915050565b6000602082840312156133da57600080fd5b60006133e8848285016130fb565b91505092915050565b60006020828403121561340357600080fd5b600082013567ffffffffffffffff81111561341d57600080fd5b6134298482850161313a565b91505092915050565b60006020828403121561344457600080fd5b600061345284828501613164565b91505092915050565b61346481613fa8565b82525050565b61347381613fba565b82525050565b61348281613fc6565b82525050565b600061349382613e15565b61349d8185613e2b565b93506134ad818560208601614042565b6134b681614238565b840191505092915050565b60006134cc82613e20565b6134d68185613e3c565b93506134e6818560208601614042565b6134ef81614238565b840191505092915050565b600061350582613e20565b61350f8185613e4d565b935061351f818560208601614042565b80840191505092915050565b6000613538601883613e3c565b915061354382614249565b602082019050919050565b600061355b601083613e3c565b915061356682614272565b602082019050919050565b600061357e603283613e3c565b91506135898261429b565b604082019050919050565b60006135a1602683613e3c565b91506135ac826142ea565b604082019050919050565b60006135c4602583613e3c565b91506135cf82614339565b604082019050919050565b60006135e7601c83613e3c565b91506135f282614388565b602082019050919050565b600061360a601183613e3c565b9150613615826143b1565b602082019050919050565b600061362d601783613e3c565b9150613638826143da565b602082019050919050565b6000613650602483613e3c565b915061365b82614403565b604082019050919050565b6000613673601983613e3c565b915061367e82614452565b602082019050919050565b6000613696601883613e3c565b91506136a18261447b565b602082019050919050565b60006136b9601a83613e3c565b91506136c4826144a4565b602082019050919050565b60006136dc601483613e3c565b91506136e7826144cd565b602082019050919050565b60006136ff602c83613e3c565b915061370a826144f6565b604082019050919050565b6000613722603883613e3c565b915061372d82614545565b604082019050919050565b6000613745602a83613e3c565b915061375082614594565b604082019050919050565b6000613768602983613e3c565b9150613773826145e3565b604082019050919050565b600061378b601e83613e3c565b915061379682614632565b602082019050919050565b60006137ae602083613e3c565b91506137b98261465b565b602082019050919050565b60006137d1602c83613e3c565b91506137dc82614684565b604082019050919050565b60006137f4600583613e4d565b91506137ff826146d3565b600582019050919050565b6000613817601783613e3c565b9150613822826146fc565b602082019050919050565b600061383a602083613e3c565b915061384582614725565b602082019050919050565b600061385d602f83613e3c565b91506138688261474e565b604082019050919050565b6000613880602183613e3c565b915061388b8261479d565b604082019050919050565b60006138a3601283613e3c565b91506138ae826147ec565b602082019050919050565b60006138c6603183613e3c565b91506138d182614815565b604082019050919050565b60006138e9600183613e4d565b91506138f482614864565b600182019050919050565b6139088161401c565b82525050565b600061391a82856134fa565b9150613925826138dc565b915061393182846134fa565b915061393c826137e7565b91508190509392505050565b600060208201905061395d600083018461345b565b92915050565b6000608082019050613978600083018761345b565b613985602083018661345b565b61399260408301856138ff565b81810360608301526139a48184613488565b905095945050505050565b60006020820190506139c4600083018461346a565b92915050565b60006020820190506139df6000830184613479565b92915050565b600060208201905081810360008301526139ff81846134c1565b905092915050565b60006020820190508181036000830152613a208161352b565b9050919050565b60006020820190508181036000830152613a408161354e565b9050919050565b60006020820190508181036000830152613a6081613571565b9050919050565b60006020820190508181036000830152613a8081613594565b9050919050565b60006020820190508181036000830152613aa0816135b7565b9050919050565b60006020820190508181036000830152613ac0816135da565b9050919050565b60006020820190508181036000830152613ae0816135fd565b9050919050565b60006020820190508181036000830152613b0081613620565b9050919050565b60006020820190508181036000830152613b2081613643565b9050919050565b60006020820190508181036000830152613b4081613666565b9050919050565b60006020820190508181036000830152613b6081613689565b9050919050565b60006020820190508181036000830152613b80816136ac565b9050919050565b60006020820190508181036000830152613ba0816136cf565b9050919050565b60006020820190508181036000830152613bc0816136f2565b9050919050565b60006020820190508181036000830152613be081613715565b9050919050565b60006020820190508181036000830152613c0081613738565b9050919050565b60006020820190508181036000830152613c208161375b565b9050919050565b60006020820190508181036000830152613c408161377e565b9050919050565b60006020820190508181036000830152613c60816137a1565b9050919050565b60006020820190508181036000830152613c80816137c4565b9050919050565b60006020820190508181036000830152613ca08161380a565b9050919050565b60006020820190508181036000830152613cc08161382d565b9050919050565b60006020820190508181036000830152613ce081613850565b9050919050565b60006020820190508181036000830152613d0081613873565b9050919050565b60006020820190508181036000830152613d2081613896565b9050919050565b60006020820190508181036000830152613d40816138b9565b9050919050565b6000602082019050613d5c60008301846138ff565b92915050565b6000613d6c613d7d565b9050613d7882826140a7565b919050565b6000604051905090565b600067ffffffffffffffff821115613da257613da1614209565b5b602082029050602081019050919050565b600067ffffffffffffffff821115613dce57613dcd614209565b5b613dd782614238565b9050602081019050919050565b600067ffffffffffffffff821115613dff57613dfe614209565b5b613e0882614238565b9050602081019050919050565b600081519050919050565b600081519050919050565b600082825260208201905092915050565b600082825260208201905092915050565b600081905092915050565b6000613e638261401c565b9150613e6e8361401c565b9250827fffffffffffffffffffffffffffffffffffffffffffffffffffffffffffffffff03821115613ea357613ea261417c565b5b828201905092915050565b6000613eb98261401c565b9150613ec48361401c565b925082613ed457613ed36141ab565b5b828204905092915050565b6000613eea8261401c565b9150613ef58361401c565b9250817fffffffffffffffffffffffffffffffffffffffffffffffffffffffffffffffff0483118215151615613f2e57613f2d61417c565b5b828202905092915050565b6000613f4482614026565b9150613f4f83614026565b92508160ff0483118215151615613f6957613f6861417c565b5b828202905092915050565b6000613f7f8261401c565b9150613f8a8361401c565b925082821015613f9d57613f9c61417c565b5b828203905092915050565b6000613fb382613ffc565b9050919050565b60008115159050919050565b6000819050919050565b60007fffffffff0000000000000000000000000000000000000000000000000000000082169050919050565b600073ffffffffffffffffffffffffffffffffffffffff82169050919050565b6000819050919050565b600060ff82169050919050565b82818337600083830152505050565b60005b83811015614060578082015181840152602081019050614045565b8381111561406f576000848401525b50505050565b6000600282049050600182168061408d57607f821691505b602082108114156140a1576140a06141da565b5b50919050565b6140b082614238565b810181811067ffffffffffffffff821117156140cf576140ce614209565b5b80604052505050565b60006140e38261401c565b91507fffffffffffffffffffffffffffffffffffffffffffffffffffffffffffffffff8214156141165761411561417c565b5b600182019050919050565b600061412c82614026565b915060ff8214156141405761413f61417c565b5b600182019050919050565b60006141568261401c565b91506141618361401c565b925082614171576141706141ab565b5b828206905092915050565b7f4e487b7100000000000000000000000000000000000000000000000000000000600052601160045260246000fd5b7f4e487b7100000000000000000000000000000000000000000000000000000000600052601260045260246000fd5b7f4e487b7100000000000000000000000000000000000000000000000000000000600052602260045260246000fd5b7f4e487b7100000000000000000000000000000000000000000000000000000000600052604160045260246000fd5b6000601f19601f8301169050919050565b7f596f752068617665206e6f7420476f6c64656e20506173730000000000000000600082015250565b7f4e6f7420656e6f756768206d6f6e657900000000000000000000000000000000600082015250565b7f4552433732313a207472616e7366657220746f206e6f6e20455243373231526560008201527f63656976657220696d706c656d656e7465720000000000000000000000000000602082015250565b7f4f776e61626c653a206e6577206f776e657220697320746865207a65726f206160008201527f6464726573730000000000000000000000000000000000000000000000000000602082015250565b7f4552433732313a207472616e736665722066726f6d20696e636f72726563742060008201527f6f776e6572000000000000000000000000000000000000000000000000000000602082015250565b7f4552433732313a20746f6b656e20616c7265616479206d696e74656400000000600082015250565b7f4578636565647320616c6c6f77616e6365000000000000000000000000000000600082015250565b7f4f472073616c6520686176656e27742073746172746564000000000000000000600082015250565b7f4552433732313a207472616e7366657220746f20746865207a65726f2061646460008201527f7265737300000000000000000000000000000000000000000000000000000000602082015250565b7f4552433732313a20617070726f766520746f2063616c6c657200000000000000600082015250565b7f596f752068617665206e6f742053696c76657220506173730000000000000000600082015250565b7f5075626c696373616c6520686176656e27742073746172746564000000000000600082015250565b7f4578636565647320746f74616c20737570706c79000000000000000000000000600082015250565b7f4552433732313a206f70657261746f7220717565727920666f72206e6f6e657860008201527f697374656e7420746f6b656e0000000000000000000000000000000000000000602082015250565b7f4552433732313a20617070726f76652063616c6c6572206973206e6f74206f7760008201527f6e6572206e6f7220617070726f76656420666f7220616c6c0000000000000000602082015250565b7f4552433732313a2062616c616e636520717565727920666f7220746865207a6560008201527f726f206164647265737300000000000000000000000000000000000000000000602082015250565b7f4552433732313a206f776e657220717565727920666f72206e6f6e657869737460008201527f656e7420746f6b656e0000000000000000000000000000000000000000000000602082015250565b7f596f7520646f6e74206861766520656e6f756768206d696e7420706173730000600082015250565b7f4552433732313a206d696e7420746f20746865207a65726f2061646472657373600082015250565b7f4552433732313a20617070726f76656420717565727920666f72206e6f6e657860008201527f697374656e7420746f6b656e0000000000000000000000000000000000000000602082015250565b7f2e6a736f6e000000000000000000000000000000000000000000000000000000600082015250565b7f50726573616c6520686176656e27742073746172746564000000000000000000600082015250565b7f4f776e61626c653a2063616c6c6572206973206e6f7420746865206f776e6572600082015250565b7f4552433732314d657461646174613a2055524920717565727920666f72206e6f60008201527f6e6578697374656e7420746f6b656e0000000000000000000000000000000000602082015250565b7f4552433732313a20617070726f76616c20746f2063757272656e74206f776e6560008201527f7200000000000000000000000000000000000000000000000000000000000000602082015250565b7f4e6f7420616c6c6f776564206f726967696e0000000000000000000000000000600082015250565b7f4552433732313a207472616e736665722063616c6c6572206973206e6f74206f60008201527f776e6572206e6f7220617070726f766564000000000000000000000000000000602082015250565b7f2f00000000000000000000000000000000000000000000000000000000000000600082015250565b61489681613fa8565b81146148a157600080fd5b50565b6148ad81613fba565b81146148b857600080fd5b50565b6148c481613fd0565b81146148cf57600080fd5b50565b6148db8161401c565b81146148e657600080fd5b5056fea2646970667358221220060fcabee70571bd1bffb7bd9fec9f667c7554a9c55c4d745cce5598536f1bd864736f6c63430008040033",
  "linkReferences": {},
  "deployedLinkReferences": {}
}