{
  "_format": "hh-sol-artifact-1",
  "contractName": "dwarfknights",
  "sourceName": "contracts/dwarf.sol",
  "abi": [
    {
      "inputs": [
        {
          "internalType": "string",
          "name": "name",
          "type": "string"
        },
        {
          "internalType": "string",
          "name": "symbol",
          "type": "string"
        },
        {
          "internalType": "string",
          "name": "_BASE_URI",
          "type": "string"
        },
        {
          "internalType": "address",
          "name": "passContractAddress",
          "type": "address"
        }
      ],
      "stateMutability": "nonpayable",
      "type": "constructor"
    },
    {
      "anonymous": false,
      "inputs": [
        {
          "indexed": true,
          "internalType": "address",
          "name": "owner",
          "type": "address"
        },
        {
          "indexed": true,
          "internalType": "address",
          "name": "approved",
          "type": "address"
        },
        {
          "indexed": true,
          "internalType": "uint256",
          "name": "tokenId",
          "type": "uint256"
        }
      ],
      "name": "Approval",
      "type": "event"
    },
    {
      "anonymous": false,
      "inputs": [
        {
          "indexed": true,
          "internalType": "address",
          "name": "owner",
          "type": "address"
        },
        {
          "indexed": true,
          "internalType": "address",
          "name": "operator",
          "type": "address"
        },
        {
          "indexed": false,
          "internalType": "bool",
          "name": "approved",
          "type": "bool"
        }
      ],
      "name": "ApprovalForAll",
      "type": "event"
    },
    {
      "anonymous": false,
      "inputs": [
        {
          "indexed": true,
          "internalType": "address",
          "name": "previousOwner",
          "type": "address"
        },
        {
          "indexed": true,
          "internalType": "address",
          "name": "newOwner",
          "type": "address"
        }
      ],
      "name": "OwnershipTransferred",
      "type": "event"
    },
    {
      "anonymous": false,
      "inputs": [
        {
          "indexed": true,
          "internalType": "address",
          "name": "from",
          "type": "address"
        },
        {
          "indexed": true,
          "internalType": "address",
          "name": "to",
          "type": "address"
        },
        {
          "indexed": true,
          "internalType": "uint256",
          "name": "tokenId",
          "type": "uint256"
        }
      ],
      "name": "Transfer",
      "type": "event"
    },
    {
      "inputs": [],
      "name": "IS_OG_SALE_ACTIVE",
      "outputs": [
        {
          "internalType": "bool",
          "name": "",
          "type": "bool"
        }
      ],
      "stateMutability": "view",
      "type": "function"
    },
    {
      "inputs": [],
      "name": "IS_PRE_SALE_ACTIVE",
      "outputs": [
        {
          "internalType": "bool",
          "name": "",
          "type": "bool"
        }
      ],
      "stateMutability": "view",
      "type": "function"
    },
    {
      "inputs": [],
      "name": "IS_PUBLIC_SALE_ACTIVE",
      "outputs": [
        {
          "internalType": "bool",
          "name": "",
          "type": "bool"
        }
      ],
      "stateMutability": "view",
      "type": "function"
    },
    {
      "inputs": [],
      "name": "MAX_SUPPLY",
      "outputs": [
        {
          "internalType": "uint256",
          "name": "",
          "type": "uint256"
        }
      ],
      "stateMutability": "view",
      "type": "function"
    },
    {
      "inputs": [
        {
          "internalType": "address",
          "name": "to",
          "type": "address"
        },
        {
          "internalType": "uint256",
          "name": "tokenId",
          "type": "uint256"
        }
      ],
      "name": "approve",
      "outputs": [],
      "stateMutability": "nonpayable",
      "type": "function"
    },
    {
      "inputs": [
        {
          "internalType": "address",
          "name": "owner",
          "type": "address"
        }
      ],
      "name": "balanceOf",
      "outputs": [
        {
          "internalType": "uint256",
          "name": "",
          "type": "uint256"
        }
      ],
      "stateMutability": "view",
      "type": "function"
    },
    {
      "inputs": [
        {
          "internalType": "uint256",
          "name": "tokenId",
          "type": "uint256"
        }
      ],
      "name": "getApproved",
      "outputs": [
        {
          "internalType": "address",
          "name": "",
          "type": "address"
        }
      ],
      "stateMutability": "view",
      "type": "function"
    },
    {
      "inputs": [
        {
          "internalType": "address",
          "name": "owner",
          "type": "address"
        },
        {
          "internalType": "address",
          "name": "operator",
          "type": "address"
        }
      ],
      "name": "isApprovedForAll",
      "outputs": [
        {
          "internalType": "bool",
          "name": "",
          "type": "bool"
        }
      ],
      "stateMutability": "view",
      "type": "function"
    },
    {
      "inputs": [],
      "name": "name",
      "outputs": [
        {
          "internalType": "string",
          "name": "",
          "type": "string"
        }
      ],
      "stateMutability": "view",
      "type": "function"
    },
    {
      "inputs": [
        {
          "internalType": "uint256",
          "name": "quantity",
          "type": "uint256"
        }
      ],
      "name": "ogSale",
      "outputs": [],
      "stateMutability": "payable",
      "type": "function"
    },
    {
      "inputs": [],
      "name": "owner",
      "outputs": [
        {
          "internalType": "address",
          "name": "",
          "type": "address"
        }
      ],
      "stateMutability": "view",
      "type": "function"
    },
    {
      "inputs": [
        {
          "internalType": "uint256",
          "name": "numberOfTokens",
          "type": "uint256"
        }
      ],
      "name": "ownerMint",
      "outputs": [],
      "stateMutability": "nonpayable",
      "type": "function"
    },
    {
      "inputs": [
        {
          "internalType": "uint256",
          "name": "tokenId",
          "type": "uint256"
        }
      ],
      "name": "ownerOf",
      "outputs": [
        {
          "internalType": "address",
          "name": "",
          "type": "address"
        }
      ],
      "stateMutability": "view",
      "type": "function"
    },
    {
      "inputs": [
        {
          "internalType": "uint256",
          "name": "quantity",
          "type": "uint256"
        }
      ],
      "name": "preSale",
      "outputs": [],
      "stateMutability": "payable",
      "type": "function"
    },
    {
      "inputs": [
        {
          "internalType": "uint256",
          "name": "quantity",
          "type": "uint256"
        }
      ],
      "name": "publicSale",
      "outputs": [],
      "stateMutability": "payable",
      "type": "function"
    },
    {
      "inputs": [],
      "name": "renounceOwnership",
      "outputs": [],
      "stateMutability": "nonpayable",
      "type": "function"
    },
    {
      "inputs": [
        {
          "internalType": "uint256",
          "name": "",
          "type": "uint256"
        },
        {
          "internalType": "uint256",
          "name": "value",
          "type": "uint256"
        }
      ],
      "name": "royaltyInfo",
      "outputs": [
        {
          "internalType": "address",
          "name": "receiver",
          "type": "address"
        },
        {
          "internalType": "uint256",
          "name": "royaltyAmount",
          "type": "uint256"
        }
      ],
      "stateMutability": "view",
      "type": "function"
    },
    {
      "inputs": [
        {
          "internalType": "address",
          "name": "from",
          "type": "address"
        },
        {
          "internalType": "address",
          "name": "to",
          "type": "address"
        },
        {
          "internalType": "uint256",
          "name": "tokenId",
          "type": "uint256"
        }
      ],
      "name": "safeTransferFrom",
      "outputs": [],
      "stateMutability": "nonpayable",
      "type": "function"
    },
    {
      "inputs": [
        {
          "internalType": "address",
          "name": "from",
          "type": "address"
        },
        {
          "internalType": "address",
          "name": "to",
          "type": "address"
        },
        {
          "internalType": "uint256",
          "name": "tokenId",
          "type": "uint256"
        },
        {
          "internalType": "bytes",
          "name": "_data",
          "type": "bytes"
        }
      ],
      "name": "safeTransferFrom",
      "outputs": [],
      "stateMutability": "nonpayable",
      "type": "function"
    },
    {
      "inputs": [
        {
          "internalType": "address",
          "name": "operator",
          "type": "address"
        },
        {
          "internalType": "bool",
          "name": "approved",
          "type": "bool"
        }
      ],
      "name": "setApprovalForAll",
      "outputs": [],
      "stateMutability": "nonpayable",
      "type": "function"
    },
    {
      "inputs": [
        {
          "internalType": "string",
          "name": "newUri",
          "type": "string"
        }
      ],
      "name": "setBaseURI",
      "outputs": [],
      "stateMutability": "nonpayable",
      "type": "function"
    },
    {
      "inputs": [
        {
          "internalType": "address",
          "name": "_contractAddress",
          "type": "address"
        }
      ],
      "name": "setPassContractAddress",
      "outputs": [],
      "stateMutability": "nonpayable",
      "type": "function"
    },
    {
      "inputs": [
        {
          "internalType": "address",
          "name": "recipient",
          "type": "address"
        },
        {
          "internalType": "uint24",
          "name": "value",
          "type": "uint24"
        }
      ],
      "name": "setRoyalties",
      "outputs": [],
      "stateMutability": "nonpayable",
      "type": "function"
    },
    {
      "inputs": [
        {
          "internalType": "bytes4",
          "name": "interfaceId",
          "type": "bytes4"
        }
      ],
      "name": "supportsInterface",
      "outputs": [
        {
          "internalType": "bool",
          "name": "",
          "type": "bool"
        }
      ],
      "stateMutability": "view",
      "type": "function"
    },
    {
      "inputs": [],
      "name": "symbol",
      "outputs": [
        {
          "internalType": "string",
          "name": "",
          "type": "string"
        }
      ],
      "stateMutability": "view",
      "type": "function"
    },
    {
      "inputs": [],
      "name": "toggleOGSale",
      "outputs": [],
      "stateMutability": "nonpayable",
      "type": "function"
    },
    {
      "inputs": [],
      "name": "togglePreSale",
      "outputs": [],
      "stateMutability": "nonpayable",
      "type": "function"
    },
    {
      "inputs": [],
      "name": "togglePublicSale",
      "outputs": [],
      "stateMutability": "nonpayable",
      "type": "function"
    },
    {
      "inputs": [
        {
          "internalType": "uint256",
          "name": "tokenId",
          "type": "uint256"
        }
      ],
      "name": "tokenURI",
      "outputs": [
        {
          "internalType": "string",
          "name": "",
          "type": "string"
        }
      ],
      "stateMutability": "view",
      "type": "function"
    },
    {
      "inputs": [],
      "name": "totalSupply",
      "outputs": [
        {
          "internalType": "uint256",
          "name": "",
          "type": "uint256"
        }
      ],
      "stateMutability": "view",
      "type": "function"
    },
    {
      "inputs": [
        {
          "internalType": "address",
          "name": "from",
          "type": "address"
        },
        {
          "internalType": "address",
          "name": "to",
          "type": "address"
        },
        {
          "internalType": "uint256",
          "name": "tokenId",
          "type": "uint256"
        }
      ],
      "name": "transferFrom",
      "outputs": [],
      "stateMutability": "nonpayable",
      "type": "function"
    },
    {
      "inputs": [
        {
          "internalType": "address",
          "name": "newOwner",
          "type": "address"
        }
      ],
      "name": "transferOwnership",
      "outputs": [],
      "stateMutability": "nonpayable",
      "type": "function"
    },
    {
      "inputs": [],
      "name": "withdrawFunds",
      "outputs": [],
      "stateMutability": "nonpayable",
      "type": "function"
    }
  ],
  "bytecode": "0x6080604052670de0b6b3a7640000600955671158e460913d0000600a556714d1120d7b160000600b556000600c60006101000a81548160ff0219169083151502179055506000600c60016101000a81548160ff0219169083151502179055506000600c60026101000a81548160ff0219169083151502179055506101f4600e60146101000a81548162ffffff021916908362ffffff160217905550348015620000a757600080fd5b50604051620052ec380380620052ec8339818101604052810190620000cd9190620003bb565b83838160009080519060200190620000e792919062000282565b5080600190805190602001906200010092919062000282565b50505062000123620001176200019e60201b60201c565b620001a660201b60201c565b80600f60006101000a81548173ffffffffffffffffffffffffffffffffffffffff021916908373ffffffffffffffffffffffffffffffffffffffff16021790555081600890805190602001906200017c92919062000282565b506200019460076200026c60201b620021f11760201c565b5050505062000630565b600033905090565b6000600660009054906101000a900473ffffffffffffffffffffffffffffffffffffffff16905081600660006101000a81548173ffffffffffffffffffffffffffffffffffffffff021916908373ffffffffffffffffffffffffffffffffffffffff1602179055508173ffffffffffffffffffffffffffffffffffffffff168173ffffffffffffffffffffffffffffffffffffffff167f8be0079c531659141344cd1fd0a4f28419497f9722a3daafe3b4186f6b6457e060405160405180910390a35050565b6001816000016000828254019250508190555050565b82805462000290906200053b565b90600052602060002090601f016020900481019282620002b4576000855562000300565b82601f10620002cf57805160ff191683800117855562000300565b8280016001018555821562000300579182015b82811115620002ff578251825591602001919060010190620002e2565b5b5090506200030f919062000313565b5090565b5b808211156200032e57600081600090555060010162000314565b5090565b60006200034962000343846200049b565b62000472565b9050828152602081018484840111156200036257600080fd5b6200036f84828562000505565b509392505050565b600081519050620003888162000616565b92915050565b600082601f830112620003a057600080fd5b8151620003b284826020860162000332565b91505092915050565b60008060008060808587031215620003d257600080fd5b600085015167ffffffffffffffff811115620003ed57600080fd5b620003fb878288016200038e565b945050602085015167ffffffffffffffff8111156200041957600080fd5b62000427878288016200038e565b935050604085015167ffffffffffffffff8111156200044557600080fd5b62000453878288016200038e565b9250506060620004668782880162000377565b91505092959194509250565b60006200047e62000491565b90506200048c828262000571565b919050565b6000604051905090565b600067ffffffffffffffff821115620004b957620004b8620005d6565b5b620004c48262000605565b9050602081019050919050565b6000620004de82620004e5565b9050919050565b600073ffffffffffffffffffffffffffffffffffffffff82169050919050565b60005b838110156200052557808201518184015260208101905062000508565b8381111562000535576000848401525b50505050565b600060028204905060018216806200055457607f821691505b602082108114156200056b576200056a620005a7565b5b50919050565b6200057c8262000605565b810181811067ffffffffffffffff821117156200059e576200059d620005d6565b5b80604052505050565b7f4e487b7100000000000000000000000000000000000000000000000000000000600052602260045260246000fd5b7f4e487b7100000000000000000000000000000000000000000000000000000000600052604160045260246000fd5b6000601f19601f8301169050919050565b6200062181620004d1565b81146200062d57600080fd5b50565b614cac80620006406000396000f3fe6080604052600436106101ee5760003560e01c8063715018a61161010d578063bb20b543116100a0578063e222c7f91161006f578063e222c7f914610687578063e94d75f31461069e578063e985e9c5146106c9578063f19e75d414610706578063f2fde38b1461072f576101ee565b8063bb20b543146105df578063c6e6c8711461060a578063c87b56dd14610633578063ca3cb52214610670576101ee565b806399800185116100dc578063998001851461055a578063a22cb46514610571578063b287c8ed1461059a578063b88d4fde146105b6576101ee565b8063715018a6146104c25780638da5cb5b146104d95780638e70d2741461050457806395d89b411461052f576101ee565b806324600fc31161018557806355f804b31161015457806355f804b3146104035780636352211e1461042c57806367418fc21461046957806370a0823114610485576101ee565b806324600fc31461035a5780632a55205a1461037157806332cb6b0c146103af57806342842e0e146103da576101ee565b80630c153b49116101c15780630c153b49146102c1578063131f4104146102ea57806318160ddd1461030657806323b872dd14610331576101ee565b806301ffc9a7146101f357806306fdde0314610230578063081812fc1461025b578063095ea7b314610298575b600080fd5b3480156101ff57600080fd5b5061021a600480360381019061021591906136ab565b610758565b6040516102279190613cfb565b60405180910390f35b34801561023c57600080fd5b506102456107d2565b6040516102529190613d16565b60405180910390f35b34801561026757600080fd5b50610282600480360381019061027d919061373e565b610864565b60405161028f9190613c6b565b60405180910390f35b3480156102a457600080fd5b506102bf60048036038101906102ba9190613605565b6108e9565b005b3480156102cd57600080fd5b506102e860048036038101906102e3919061345e565b610a01565b005b61030460048036038101906102ff919061373e565b610ac1565b005b34801561031257600080fd5b5061031b610f90565b60405161032891906140b8565b60405180910390f35b34801561033d57600080fd5b50610358600480360381019061035391906134c3565b610fad565b005b34801561036657600080fd5b5061036f61100d565b005b34801561037d57600080fd5b5061039860048036038101906103939190613767565b6110d2565b6040516103a6929190613cd2565b60405180910390f35b3480156103bb57600080fd5b506103c4611132565b6040516103d191906140b8565b60405180910390f35b3480156103e657600080fd5b5061040160048036038101906103fc91906134c3565b611138565b005b34801561040f57600080fd5b5061042a600480360381019061042591906136fd565b611158565b005b34801561043857600080fd5b50610453600480360381019061044e919061373e565b6111ee565b6040516104609190613c6b565b60405180910390f35b610483600480360381019061047e919061373e565b6112a0565b005b34801561049157600080fd5b506104ac60048036038101906104a7919061345e565b6117b3565b6040516104b991906140b8565b60405180910390f35b3480156104ce57600080fd5b506104d761186b565b005b3480156104e557600080fd5b506104ee6118f3565b6040516104fb9190613c6b565b60405180910390f35b34801561051057600080fd5b5061051961191d565b6040516105269190613cfb565b60405180910390f35b34801561053b57600080fd5b50610544611930565b6040516105519190613d16565b60405180910390f35b34801561056657600080fd5b5061056f6119c2565b005b34801561057d57600080fd5b506105986004803603810190610593919061358d565b611a6a565b005b6105b460048036038101906105af919061373e565b611a80565b005b3480156105c257600080fd5b506105dd60048036038101906105d89190613512565b611c58565b005b3480156105eb57600080fd5b506105f4611cba565b6040516106019190613cfb565b60405180910390f35b34801561061657600080fd5b50610631600480360381019061062c91906135c9565b611ccd565b005b34801561063f57600080fd5b5061065a6004803603810190610655919061373e565b611d57565b6040516106679190613d16565b60405180910390f35b34801561067c57600080fd5b50610685611dfe565b005b34801561069357600080fd5b5061069c611ea6565b005b3480156106aa57600080fd5b506106b3611f4e565b6040516106c09190613cfb565b60405180910390f35b3480156106d557600080fd5b506106f060048036038101906106eb9190613487565b611f61565b6040516106fd9190613cfb565b60405180910390f35b34801561071257600080fd5b5061072d6004803603810190610728919061373e565b611ff5565b005b34801561073b57600080fd5b506107566004803603810190610751919061345e565b6120f9565b005b60007f2a55205a000000000000000000000000000000000000000000000000000000007bffffffffffffffffffffffffffffffffffffffffffffffffffffffff1916827bffffffffffffffffffffffffffffffffffffffffffffffffffffffff191614806107cb57506107ca82612207565b5b9050919050565b6060600080546107e1906143eb565b80601f016020809104026020016040519081016040528092919081815260200182805461080d906143eb565b801561085a5780601f1061082f5761010080835404028352916020019161085a565b820191906000526020600020905b81548152906001019060200180831161083d57829003601f168201915b5050505050905090565b600061086f826122e9565b6108ae576040517f08c379a00000000000000000000000000000000000000000000000000000000081526004016108a590613fb8565b60405180910390fd5b6004600083815260200190815260200160002060009054906101000a900473ffffffffffffffffffffffffffffffffffffffff169050919050565b60006108f4826111ee565b90508073ffffffffffffffffffffffffffffffffffffffff168373ffffffffffffffffffffffffffffffffffffffff161415610965576040517f08c379a000000000000000000000000000000000000000000000000000000000815260040161095c90614038565b60405180910390fd5b8073ffffffffffffffffffffffffffffffffffffffff16610984612355565b73ffffffffffffffffffffffffffffffffffffffff1614806109b357506109b2816109ad612355565b611f61565b5b6109f2576040517f08c379a00000000000000000000000000000000000000000000000000000000081526004016109e990613f18565b60405180910390fd5b6109fc838361235d565b505050565b610a09612355565b73ffffffffffffffffffffffffffffffffffffffff16610a276118f3565b73ffffffffffffffffffffffffffffffffffffffff1614610a7d576040517f08c379a0000000000000000000000000000000000000000000000000000000008152600401610a7490613ff8565b60405180910390fd5b80600f60006101000a81548173ffffffffffffffffffffffffffffffffffffffff021916908373ffffffffffffffffffffffffffffffffffffffff16021790555050565b3273ffffffffffffffffffffffffffffffffffffffff163373ffffffffffffffffffffffffffffffffffffffff1614610b2f576040517f08c379a0000000000000000000000000000000000000000000000000000000008152600401610b2690614058565b60405180910390fd5b600c60019054906101000a900460ff16610b7e576040517f08c379a0000000000000000000000000000000000000000000000000000000008152600401610b7590613fd8565b60405180910390fd5b6000610b8a6007612416565b905061270f8282610b9b91906141c9565b10610bdb576040517f08c379a0000000000000000000000000000000000000000000000000000000008152600401610bd290613ed8565b60405180910390fd5b610be782600a54612424565b341015610c29576040517f08c379a0000000000000000000000000000000000000000000000000000000008152600401610c2090613d58565b60405180910390fd5b600080600f60009054906101000a900473ffffffffffffffffffffffffffffffffffffffff1673ffffffffffffffffffffffffffffffffffffffff16638462151c336040518263ffffffff1660e01b8152600401610c879190613c6b565b60006040518083038186803b158015610c9f57600080fd5b505afa158015610cb3573d6000803e3d6000fd5b505050506040513d6000823e3d601f19601f82011682018060405250810190610cdc9190613641565b905060005b8151811015610eca57600f60009054906101000a900473ffffffffffffffffffffffffffffffffffffffff1673ffffffffffffffffffffffffffffffffffffffff16634878f78f838381518110610d61577f4e487b7100000000000000000000000000000000000000000000000000000000600052603260045260246000fd5b60200260200101516040518263ffffffff1660e01b8152600401610d8591906140b8565b602060405180830381600087803b158015610d9f57600080fd5b505af1158015610db3573d6000803e3d6000fd5b505050506040513d601f19601f82011682018060405250810190610dd79190613682565b610eb757600f60009054906101000a900473ffffffffffffffffffffffffffffffffffffffff1673ffffffffffffffffffffffffffffffffffffffff166342966c68838381518110610e52577f4e487b7100000000000000000000000000000000000000000000000000000000600052603260045260246000fd5b60200260200101516040518263ffffffff1660e01b8152600401610e7691906140b8565b600060405180830381600087803b158015610e9057600080fd5b505af1158015610ea4573d6000803e3d6000fd5b505050508280610eb390614497565b9350505b8080610ec29061444e565b915050610ce1565b5060008260ff1611610f11576040517f08c379a0000000000000000000000000000000000000000000000000000000008152600401610f0890613e98565b60405180910390fd5b83600583610f1f91906142aa565b60ff161015610f63576040517f08c379a0000000000000000000000000000000000000000000000000000000008152600401610f5a90613f78565b60405180910390fd5b60005b84811015610f8957610f7661246a565b8080610f819061444e565b915050610f66565b5050505050565b60006001610f9e6007612416565b610fa891906142e5565b905090565b610fbe610fb8612355565b826124e4565b610ffd576040517f08c379a0000000000000000000000000000000000000000000000000000000008152600401610ff490614078565b60405180910390fd5b6110088383836125c2565b505050565b611015612355565b73ffffffffffffffffffffffffffffffffffffffff166110336118f3565b73ffffffffffffffffffffffffffffffffffffffff1614611089576040517f08c379a000000000000000000000000000000000000000000000000000000000815260040161108090613ff8565b60405180910390fd5b3373ffffffffffffffffffffffffffffffffffffffff166108fc479081150290604051600060405180830381858888f193505050501580156110cf573d6000803e3d6000fd5b50565b600080600e60009054906101000a900473ffffffffffffffffffffffffffffffffffffffff169150612710600e60149054906101000a900462ffffff1662ffffff168461111f9190614250565b611129919061421f565b90509250929050565b61270f81565b61115383838360405180602001604052806000815250611c58565b505050565b611160612355565b73ffffffffffffffffffffffffffffffffffffffff1661117e6118f3565b73ffffffffffffffffffffffffffffffffffffffff16146111d4576040517f08c379a00000000000000000000000000000000000000000000000000000000081526004016111cb90613ff8565b60405180910390fd5b80600890805190602001906111ea9291906131ad565b5050565b6000806002600084815260200190815260200160002060009054906101000a900473ffffffffffffffffffffffffffffffffffffffff169050600073ffffffffffffffffffffffffffffffffffffffff168173ffffffffffffffffffffffffffffffffffffffff161415611297576040517f08c379a000000000000000000000000000000000000000000000000000000000815260040161128e90613f58565b60405180910390fd5b80915050919050565b3273ffffffffffffffffffffffffffffffffffffffff163373ffffffffffffffffffffffffffffffffffffffff161461130e576040517f08c379a000000000000000000000000000000000000000000000000000000000815260040161130590614058565b60405180910390fd5b600c60009054906101000a900460ff1661135d576040517f08c379a000000000000000000000000000000000000000000000000000000000815260040161135490613e38565b60405180910390fd5b60006113696007612416565b9050600082116113ae576040517f08c379a00000000000000000000000000000000000000000000000000000000081526004016113a590613d78565b60405180910390fd5b61270f82826113bd91906141c9565b106113fd576040517f08c379a00000000000000000000000000000000000000000000000000000000081526004016113f490613ed8565b60405180910390fd5b61140982600954612424565b34101561144b576040517f08c379a000000000000000000000000000000000000000000000000000000000815260040161144290613d58565b60405180910390fd5b600080600f60009054906101000a900473ffffffffffffffffffffffffffffffffffffffff1673ffffffffffffffffffffffffffffffffffffffff16638462151c336040518263ffffffff1660e01b81526004016114a99190613c6b565b60006040518083038186803b1580156114c157600080fd5b505afa1580156114d5573d6000803e3d6000fd5b505050506040513d6000823e3d601f19601f820116820180604052508101906114fe9190613641565b905060005b81518110156116ed57600f60009054906101000a900473ffffffffffffffffffffffffffffffffffffffff1673ffffffffffffffffffffffffffffffffffffffff16634878f78f838381518110611583577f4e487b7100000000000000000000000000000000000000000000000000000000600052603260045260246000fd5b60200260200101516040518263ffffffff1660e01b81526004016115a791906140b8565b602060405180830381600087803b1580156115c157600080fd5b505af11580156115d5573d6000803e3d6000fd5b505050506040513d601f19601f820116820180604052508101906115f99190613682565b156116da57600f60009054906101000a900473ffffffffffffffffffffffffffffffffffffffff1673ffffffffffffffffffffffffffffffffffffffff166342966c68838381518110611675577f4e487b7100000000000000000000000000000000000000000000000000000000600052603260045260246000fd5b60200260200101516040518263ffffffff1660e01b815260040161169991906140b8565b600060405180830381600087803b1580156116b357600080fd5b505af11580156116c7573d6000803e3d6000fd5b5050505082806116d690614497565b9350505b80806116e59061444e565b915050611503565b5060008260ff1611611734576040517f08c379a000000000000000000000000000000000000000000000000000000000815260040161172b90613d38565b60405180910390fd5b8360058361174291906142aa565b60ff161015611786576040517f08c379a000000000000000000000000000000000000000000000000000000000815260040161177d90613f78565b60405180910390fd5b60005b848110156117ac5761179961246a565b80806117a49061444e565b915050611789565b5050505050565b60008073ffffffffffffffffffffffffffffffffffffffff168273ffffffffffffffffffffffffffffffffffffffff161415611824576040517f08c379a000000000000000000000000000000000000000000000000000000000815260040161181b90613f38565b60405180910390fd5b600360008373ffffffffffffffffffffffffffffffffffffffff1673ffffffffffffffffffffffffffffffffffffffff168152602001908152602001600020549050919050565b611873612355565b73ffffffffffffffffffffffffffffffffffffffff166118916118f3565b73ffffffffffffffffffffffffffffffffffffffff16146118e7576040517f08c379a00000000000000000000000000000000000000000000000000000000081526004016118de90613ff8565b60405180910390fd5b6118f16000612829565b565b6000600660009054906101000a900473ffffffffffffffffffffffffffffffffffffffff16905090565b600c60019054906101000a900460ff1681565b60606001805461193f906143eb565b80601f016020809104026020016040519081016040528092919081815260200182805461196b906143eb565b80156119b85780601f1061198d576101008083540402835291602001916119b8565b820191906000526020600020905b81548152906001019060200180831161199b57829003601f168201915b5050505050905090565b6119ca612355565b73ffffffffffffffffffffffffffffffffffffffff166119e86118f3565b73ffffffffffffffffffffffffffffffffffffffff1614611a3e576040517f08c379a0000000000000000000000000000000000000000000000000000000008152600401611a3590613ff8565b60405180910390fd5b600c60009054906101000a900460ff1615600c60006101000a81548160ff021916908315150217905550565b611a7c611a75612355565b83836128ef565b5050565b3273ffffffffffffffffffffffffffffffffffffffff163373ffffffffffffffffffffffffffffffffffffffff1614611aee576040517f08c379a0000000000000000000000000000000000000000000000000000000008152600401611ae590614058565b60405180910390fd5b600c60029054906101000a900460ff16611b3d576040517f08c379a0000000000000000000000000000000000000000000000000000000008152600401611b3490613eb8565b60405180910390fd5b6000611b496007612416565b905061270f8282611b5a91906141c9565b10611b9a576040517f08c379a0000000000000000000000000000000000000000000000000000000008152600401611b9190613ed8565b60405180910390fd5b600a8210611bdd576040517f08c379a0000000000000000000000000000000000000000000000000000000008152600401611bd490613e18565b60405180910390fd5b81600b54611beb9190614250565b341015611c2d576040517f08c379a0000000000000000000000000000000000000000000000000000000008152600401611c2490613d58565b60405180910390fd5b60005b82811015611c5357611c4061246a565b8080611c4b9061444e565b915050611c30565b505050565b611c69611c63612355565b836124e4565b611ca8576040517f08c379a0000000000000000000000000000000000000000000000000000000008152600401611c9f90614078565b60405180910390fd5b611cb484848484612a5c565b50505050565b600c60009054906101000a900460ff1681565b611cd5612355565b73ffffffffffffffffffffffffffffffffffffffff16611cf36118f3565b73ffffffffffffffffffffffffffffffffffffffff1614611d49576040517f08c379a0000000000000000000000000000000000000000000000000000000008152600401611d4090613ff8565b60405180910390fd5b611d538282612ab8565b5050565b6060611d62826122e9565b611da1576040517f08c379a0000000000000000000000000000000000000000000000000000000008152600401611d9890614018565b60405180910390fd5b6000611dab612b66565b90506000815111611dcb5760405180602001604052806000815250611df6565b80611dd584612bf8565b604051602001611de6929190613c47565b6040516020818303038152906040525b915050919050565b611e06612355565b73ffffffffffffffffffffffffffffffffffffffff16611e246118f3565b73ffffffffffffffffffffffffffffffffffffffff1614611e7a576040517f08c379a0000000000000000000000000000000000000000000000000000000008152600401611e7190613ff8565b60405180910390fd5b600c60019054906101000a900460ff1615600c60016101000a81548160ff021916908315150217905550565b611eae612355565b73ffffffffffffffffffffffffffffffffffffffff16611ecc6118f3565b73ffffffffffffffffffffffffffffffffffffffff1614611f22576040517f08c379a0000000000000000000000000000000000000000000000000000000008152600401611f1990613ff8565b60405180910390fd5b600c60029054906101000a900460ff1615600c60026101000a81548160ff021916908315150217905550565b600c60029054906101000a900460ff1681565b6000600560008473ffffffffffffffffffffffffffffffffffffffff1673ffffffffffffffffffffffffffffffffffffffff16815260200190815260200160002060008373ffffffffffffffffffffffffffffffffffffffff1673ffffffffffffffffffffffffffffffffffffffff16815260200190815260200160002060009054906101000a900460ff16905092915050565b611ffd612355565b73ffffffffffffffffffffffffffffffffffffffff1661201b6118f3565b73ffffffffffffffffffffffffffffffffffffffff1614612071576040517f08c379a000000000000000000000000000000000000000000000000000000000815260040161206890613ff8565b60405180910390fd5b600061207d6007612416565b905061270f828261208e91906141c9565b106120ce576040517f08c379a00000000000000000000000000000000000000000000000000000000081526004016120c590613ed8565b60405180910390fd5b60005b828110156120f4576120e161246a565b80806120ec9061444e565b9150506120d1565b505050565b612101612355565b73ffffffffffffffffffffffffffffffffffffffff1661211f6118f3565b73ffffffffffffffffffffffffffffffffffffffff1614612175576040517f08c379a000000000000000000000000000000000000000000000000000000000815260040161216c90613ff8565b60405180910390fd5b600073ffffffffffffffffffffffffffffffffffffffff168173ffffffffffffffffffffffffffffffffffffffff1614156121e5576040517f08c379a00000000000000000000000000000000000000000000000000000000081526004016121dc90613db8565b60405180910390fd5b6121ee81612829565b50565b6001816000016000828254019250508190555050565b60007f80ac58cd000000000000000000000000000000000000000000000000000000007bffffffffffffffffffffffffffffffffffffffffffffffffffffffff1916827bffffffffffffffffffffffffffffffffffffffffffffffffffffffff191614806122d257507f5b5e139f000000000000000000000000000000000000000000000000000000007bffffffffffffffffffffffffffffffffffffffffffffffffffffffff1916827bffffffffffffffffffffffffffffffffffffffffffffffffffffffff1916145b806122e257506122e182612da5565b5b9050919050565b60008073ffffffffffffffffffffffffffffffffffffffff166002600084815260200190815260200160002060009054906101000a900473ffffffffffffffffffffffffffffffffffffffff1673ffffffffffffffffffffffffffffffffffffffff1614159050919050565b600033905090565b816004600083815260200190815260200160002060006101000a81548173ffffffffffffffffffffffffffffffffffffffff021916908373ffffffffffffffffffffffffffffffffffffffff160217905550808273ffffffffffffffffffffffffffffffffffffffff166123d0836111ee565b73ffffffffffffffffffffffffffffffffffffffff167f8c5be1e5ebec7d5bd14f71427d1e84f3dd0314c0f7b2291e5b200ac8c7c3b92560405160405180910390a45050565b600081600001549050919050565b6000600183111561245557826703782dace9d900008361244491906142e5565b61244e9190614250565b9050612464565b81836124619190614250565b90505b92915050565b60006124766007612416565b905061248260076121f1565b600d60003373ffffffffffffffffffffffffffffffffffffffff1673ffffffffffffffffffffffffffffffffffffffff16815260200190815260200160002060008154809291906124d29061444e565b91905055506124e13382612e0f565b50565b60006124ef826122e9565b61252e576040517f08c379a000000000000000000000000000000000000000000000000000000000815260040161252590613ef8565b60405180910390fd5b6000612539836111ee565b90508073ffffffffffffffffffffffffffffffffffffffff168473ffffffffffffffffffffffffffffffffffffffff1614806125a857508373ffffffffffffffffffffffffffffffffffffffff1661259084610864565b73ffffffffffffffffffffffffffffffffffffffff16145b806125b957506125b88185611f61565b5b91505092915050565b8273ffffffffffffffffffffffffffffffffffffffff166125e2826111ee565b73ffffffffffffffffffffffffffffffffffffffff1614612638576040517f08c379a000000000000000000000000000000000000000000000000000000000815260040161262f90613dd8565b60405180910390fd5b600073ffffffffffffffffffffffffffffffffffffffff168273ffffffffffffffffffffffffffffffffffffffff1614156126a8576040517f08c379a000000000000000000000000000000000000000000000000000000000815260040161269f90613e58565b60405180910390fd5b6126b3838383612fe9565b6126be60008261235d565b6001600360008573ffffffffffffffffffffffffffffffffffffffff1673ffffffffffffffffffffffffffffffffffffffff168152602001908152602001600020600082825461270e91906142e5565b925050819055506001600360008473ffffffffffffffffffffffffffffffffffffffff1673ffffffffffffffffffffffffffffffffffffffff168152602001908152602001600020600082825461276591906141c9565b92505081905550816002600083815260200190815260200160002060006101000a81548173ffffffffffffffffffffffffffffffffffffffff021916908373ffffffffffffffffffffffffffffffffffffffff160217905550808273ffffffffffffffffffffffffffffffffffffffff168473ffffffffffffffffffffffffffffffffffffffff167fddf252ad1be2c89b69c2b068fc378daa952ba7f163c4a11628f55a4df523b3ef60405160405180910390a4612824838383612fee565b505050565b6000600660009054906101000a900473ffffffffffffffffffffffffffffffffffffffff16905081600660006101000a81548173ffffffffffffffffffffffffffffffffffffffff021916908373ffffffffffffffffffffffffffffffffffffffff1602179055508173ffffffffffffffffffffffffffffffffffffffff168173ffffffffffffffffffffffffffffffffffffffff167f8be0079c531659141344cd1fd0a4f28419497f9722a3daafe3b4186f6b6457e060405160405180910390a35050565b8173ffffffffffffffffffffffffffffffffffffffff168373ffffffffffffffffffffffffffffffffffffffff16141561295e576040517f08c379a000000000000000000000000000000000000000000000000000000000815260040161295590613e78565b60405180910390fd5b80600560008573ffffffffffffffffffffffffffffffffffffffff1673ffffffffffffffffffffffffffffffffffffffff16815260200190815260200160002060008473ffffffffffffffffffffffffffffffffffffffff1673ffffffffffffffffffffffffffffffffffffffff16815260200190815260200160002060006101000a81548160ff0219169083151502179055508173ffffffffffffffffffffffffffffffffffffffff168373ffffffffffffffffffffffffffffffffffffffff167f17307eab39ab6107e8899845ad3d59bd9653f200f220920489ca2b5937696c3183604051612a4f9190613cfb565b60405180910390a3505050565b612a678484846125c2565b612a7384848484612ff3565b612ab2576040517f08c379a0000000000000000000000000000000000000000000000000000000008152600401612aa990613d98565b60405180910390fd5b50505050565b6127108162ffffff161115612b02576040517f08c379a0000000000000000000000000000000000000000000000000000000008152600401612af990614098565b60405180910390fd5b80600e60146101000a81548162ffffff021916908362ffffff16021790555081600e60006101000a81548173ffffffffffffffffffffffffffffffffffffffff021916908373ffffffffffffffffffffffffffffffffffffffff1602179055505050565b606060088054612b75906143eb565b80601f0160208091040260200160405190810160405280929190818152602001828054612ba1906143eb565b8015612bee5780601f10612bc357610100808354040283529160200191612bee565b820191906000526020600020905b815481529060010190602001808311612bd157829003601f168201915b5050505050905090565b60606000821415612c40576040518060400160405280600181526020017f30000000000000000000000000000000000000000000000000000000000000008152509050612da0565b600082905060005b60008214612c72578080612c5b9061444e565b915050600a82612c6b919061421f565b9150612c48565b60008167ffffffffffffffff811115612cb4577f4e487b7100000000000000000000000000000000000000000000000000000000600052604160045260246000fd5b6040519080825280601f01601f191660200182016040528015612ce65781602001600182028036833780820191505090505b5090505b60008514612d9957600182612cff91906142e5565b9150600a85612d0e91906144c1565b6030612d1a91906141c9565b60f81b818381518110612d56577f4e487b7100000000000000000000000000000000000000000000000000000000600052603260045260246000fd5b60200101907effffffffffffffffffffffffffffffffffffffffffffffffffffffffffffff1916908160001a905350600a85612d92919061421f565b9450612cea565b8093505050505b919050565b60007f01ffc9a7000000000000000000000000000000000000000000000000000000007bffffffffffffffffffffffffffffffffffffffffffffffffffffffff1916827bffffffffffffffffffffffffffffffffffffffffffffffffffffffff1916149050919050565b600073ffffffffffffffffffffffffffffffffffffffff168273ffffffffffffffffffffffffffffffffffffffff161415612e7f576040517f08c379a0000000000000000000000000000000000000000000000000000000008152600401612e7690613f98565b60405180910390fd5b612e88816122e9565b15612ec8576040517f08c379a0000000000000000000000000000000000000000000000000000000008152600401612ebf90613df8565b60405180910390fd5b612ed460008383612fe9565b6001600360008473ffffffffffffffffffffffffffffffffffffffff1673ffffffffffffffffffffffffffffffffffffffff1681526020019081526020016000206000828254612f2491906141c9565b92505081905550816002600083815260200190815260200160002060006101000a81548173ffffffffffffffffffffffffffffffffffffffff021916908373ffffffffffffffffffffffffffffffffffffffff160217905550808273ffffffffffffffffffffffffffffffffffffffff16600073ffffffffffffffffffffffffffffffffffffffff167fddf252ad1be2c89b69c2b068fc378daa952ba7f163c4a11628f55a4df523b3ef60405160405180910390a4612fe560008383612fee565b5050565b505050565b505050565b60006130148473ffffffffffffffffffffffffffffffffffffffff1661318a565b1561317d578373ffffffffffffffffffffffffffffffffffffffff1663150b7a0261303d612355565b8786866040518563ffffffff1660e01b815260040161305f9493929190613c86565b602060405180830381600087803b15801561307957600080fd5b505af19250505080156130aa57506040513d601f19601f820116820180604052508101906130a791906136d4565b60015b61312d573d80600081146130da576040519150601f19603f3d011682016040523d82523d6000602084013e6130df565b606091505b50600081511415613125576040517f08c379a000000000000000000000000000000000000000000000000000000000815260040161311c90613d98565b60405180910390fd5b805181602001fd5b63150b7a0260e01b7bffffffffffffffffffffffffffffffffffffffffffffffffffffffff1916817bffffffffffffffffffffffffffffffffffffffffffffffffffffffff191614915050613182565b600190505b949350505050565b6000808273ffffffffffffffffffffffffffffffffffffffff163b119050919050565b8280546131b9906143eb565b90600052602060002090601f0160209004810192826131db5760008555613222565b82601f106131f457805160ff1916838001178555613222565b82800160010185558215613222579182015b82811115613221578251825591602001919060010190613206565b5b50905061322f9190613233565b5090565b5b8082111561324c576000816000905550600101613234565b5090565b600061326361325e846140f8565b6140d3565b9050808382526020820190508285602086028201111561328257600080fd5b60005b858110156132b257816132988882613449565b845260208401935060208301925050600181019050613285565b5050509392505050565b60006132cf6132ca84614124565b6140d3565b9050828152602081018484840111156132e757600080fd5b6132f28482856143a9565b509392505050565b600061330d61330884614155565b6140d3565b90508281526020810184848401111561332557600080fd5b6133308482856143a9565b509392505050565b60008135905061334781614c03565b92915050565b600082601f83011261335e57600080fd5b815161336e848260208601613250565b91505092915050565b60008135905061338681614c1a565b92915050565b60008151905061339b81614c1a565b92915050565b6000813590506133b081614c31565b92915050565b6000815190506133c581614c31565b92915050565b600082601f8301126133dc57600080fd5b81356133ec8482602086016132bc565b91505092915050565b600082601f83011261340657600080fd5b81356134168482602086016132fa565b91505092915050565b60008135905061342e81614c48565b92915050565b60008135905061344381614c5f565b92915050565b60008151905061345881614c5f565b92915050565b60006020828403121561347057600080fd5b600061347e84828501613338565b91505092915050565b6000806040838503121561349a57600080fd5b60006134a885828601613338565b92505060206134b985828601613338565b9150509250929050565b6000806000606084860312156134d857600080fd5b60006134e686828701613338565b93505060206134f786828701613338565b925050604061350886828701613434565b9150509250925092565b6000806000806080858703121561352857600080fd5b600061353687828801613338565b945050602061354787828801613338565b935050604061355887828801613434565b925050606085013567ffffffffffffffff81111561357557600080fd5b613581878288016133cb565b91505092959194509250565b600080604083850312156135a057600080fd5b60006135ae85828601613338565b92505060206135bf85828601613377565b9150509250929050565b600080604083850312156135dc57600080fd5b60006135ea85828601613338565b92505060206135fb8582860161341f565b9150509250929050565b6000806040838503121561361857600080fd5b600061362685828601613338565b925050602061363785828601613434565b9150509250929050565b60006020828403121561365357600080fd5b600082015167ffffffffffffffff81111561366d57600080fd5b6136798482850161334d565b91505092915050565b60006020828403121561369457600080fd5b60006136a28482850161338c565b91505092915050565b6000602082840312156136bd57600080fd5b60006136cb848285016133a1565b91505092915050565b6000602082840312156136e657600080fd5b60006136f4848285016133b6565b91505092915050565b60006020828403121561370f57600080fd5b600082013567ffffffffffffffff81111561372957600080fd5b613735848285016133f5565b91505092915050565b60006020828403121561375057600080fd5b600061375e84828501613434565b91505092915050565b6000806040838503121561377a57600080fd5b600061378885828601613434565b925050602061379985828601613434565b9150509250929050565b6137ac81614319565b82525050565b6137bb8161432b565b82525050565b60006137cc82614186565b6137d6818561419c565b93506137e68185602086016143b8565b6137ef816145ae565b840191505092915050565b600061380582614191565b61380f81856141ad565b935061381f8185602086016143b8565b613828816145ae565b840191505092915050565b600061383e82614191565b61384881856141be565b93506138588185602086016143b8565b80840191505092915050565b60006138716018836141ad565b915061387c826145bf565b602082019050919050565b60006138946010836141ad565b915061389f826145e8565b602082019050919050565b60006138b7601f836141ad565b91506138c282614611565b602082019050919050565b60006138da6032836141ad565b91506138e58261463a565b604082019050919050565b60006138fd6026836141ad565b915061390882614689565b604082019050919050565b60006139206025836141ad565b915061392b826146d8565b604082019050919050565b6000613943601c836141ad565b915061394e82614727565b602082019050919050565b60006139666011836141ad565b915061397182614750565b602082019050919050565b60006139896017836141ad565b915061399482614779565b602082019050919050565b60006139ac6024836141ad565b91506139b7826147a2565b604082019050919050565b60006139cf6019836141ad565b91506139da826147f1565b602082019050919050565b60006139f26018836141ad565b91506139fd8261481a565b602082019050919050565b6000613a15601a836141ad565b9150613a2082614843565b602082019050919050565b6000613a386014836141ad565b9150613a438261486c565b602082019050919050565b6000613a5b602c836141ad565b9150613a6682614895565b604082019050919050565b6000613a7e6038836141ad565b9150613a89826148e4565b604082019050919050565b6000613aa1602a836141ad565b9150613aac82614933565b604082019050919050565b6000613ac46029836141ad565b9150613acf82614982565b604082019050919050565b6000613ae7601e836141ad565b9150613af2826149d1565b602082019050919050565b6000613b0a6020836141ad565b9150613b15826149fa565b602082019050919050565b6000613b2d602c836141ad565b9150613b3882614a23565b604082019050919050565b6000613b506017836141ad565b9150613b5b82614a72565b602082019050919050565b6000613b736020836141ad565b9150613b7e82614a9b565b602082019050919050565b6000613b96602f836141ad565b9150613ba182614ac4565b604082019050919050565b6000613bb96021836141ad565b9150613bc482614b13565b604082019050919050565b6000613bdc6012836141ad565b9150613be782614b62565b602082019050919050565b6000613bff6031836141ad565b9150613c0a82614b8b565b604082019050919050565b6000613c226011836141ad565b9150613c2d82614bda565b602082019050919050565b613c4181614392565b82525050565b6000613c538285613833565b9150613c5f8284613833565b91508190509392505050565b6000602082019050613c8060008301846137a3565b92915050565b6000608082019050613c9b60008301876137a3565b613ca860208301866137a3565b613cb56040830185613c38565b8181036060830152613cc781846137c1565b905095945050505050565b6000604082019050613ce760008301856137a3565b613cf46020830184613c38565b9392505050565b6000602082019050613d1060008301846137b2565b92915050565b60006020820190508181036000830152613d3081846137fa565b905092915050565b60006020820190508181036000830152613d5181613864565b9050919050565b60006020820190508181036000830152613d7181613887565b9050919050565b60006020820190508181036000830152613d91816138aa565b9050919050565b60006020820190508181036000830152613db1816138cd565b9050919050565b60006020820190508181036000830152613dd1816138f0565b9050919050565b60006020820190508181036000830152613df181613913565b9050919050565b60006020820190508181036000830152613e1181613936565b9050919050565b60006020820190508181036000830152613e3181613959565b9050919050565b60006020820190508181036000830152613e518161397c565b9050919050565b60006020820190508181036000830152613e718161399f565b9050919050565b60006020820190508181036000830152613e91816139c2565b9050919050565b60006020820190508181036000830152613eb1816139e5565b9050919050565b60006020820190508181036000830152613ed181613a08565b9050919050565b60006020820190508181036000830152613ef181613a2b565b9050919050565b60006020820190508181036000830152613f1181613a4e565b9050919050565b60006020820190508181036000830152613f3181613a71565b9050919050565b60006020820190508181036000830152613f5181613a94565b9050919050565b60006020820190508181036000830152613f7181613ab7565b9050919050565b60006020820190508181036000830152613f9181613ada565b9050919050565b60006020820190508181036000830152613fb181613afd565b9050919050565b60006020820190508181036000830152613fd181613b20565b9050919050565b60006020820190508181036000830152613ff181613b43565b9050919050565b6000602082019050818103600083015261401181613b66565b9050919050565b6000602082019050818103600083015261403181613b89565b9050919050565b6000602082019050818103600083015261405181613bac565b9050919050565b6000602082019050818103600083015261407181613bcf565b9050919050565b6000602082019050818103600083015261409181613bf2565b9050919050565b600060208201905081810360008301526140b181613c15565b9050919050565b60006020820190506140cd6000830184613c38565b92915050565b60006140dd6140ee565b90506140e9828261441d565b919050565b6000604051905090565b600067ffffffffffffffff8211156141135761411261457f565b5b602082029050602081019050919050565b600067ffffffffffffffff82111561413f5761413e61457f565b5b614148826145ae565b9050602081019050919050565b600067ffffffffffffffff8211156141705761416f61457f565b5b614179826145ae565b9050602081019050919050565b600081519050919050565b600081519050919050565b600082825260208201905092915050565b600082825260208201905092915050565b600081905092915050565b60006141d482614392565b91506141df83614392565b9250827fffffffffffffffffffffffffffffffffffffffffffffffffffffffffffffffff03821115614214576142136144f2565b5b828201905092915050565b600061422a82614392565b915061423583614392565b92508261424557614244614521565b5b828204905092915050565b600061425b82614392565b915061426683614392565b9250817fffffffffffffffffffffffffffffffffffffffffffffffffffffffffffffffff048311821515161561429f5761429e6144f2565b5b828202905092915050565b60006142b58261439c565b91506142c08361439c565b92508160ff04831182151516156142da576142d96144f2565b5b828202905092915050565b60006142f082614392565b91506142fb83614392565b92508282101561430e5761430d6144f2565b5b828203905092915050565b600061432482614363565b9050919050565b60008115159050919050565b60007fffffffff0000000000000000000000000000000000000000000000000000000082169050919050565b600073ffffffffffffffffffffffffffffffffffffffff82169050919050565b600062ffffff82169050919050565b6000819050919050565b600060ff82169050919050565b82818337600083830152505050565b60005b838110156143d65780820151818401526020810190506143bb565b838111156143e5576000848401525b50505050565b6000600282049050600182168061440357607f821691505b6020821081141561441757614416614550565b5b50919050565b614426826145ae565b810181811067ffffffffffffffff821117156144455761444461457f565b5b80604052505050565b600061445982614392565b91507fffffffffffffffffffffffffffffffffffffffffffffffffffffffffffffffff82141561448c5761448b6144f2565b5b600182019050919050565b60006144a28261439c565b915060ff8214156144b6576144b56144f2565b5b600182019050919050565b60006144cc82614392565b91506144d783614392565b9250826144e7576144e6614521565b5b828206905092915050565b7f4e487b7100000000000000000000000000000000000000000000000000000000600052601160045260246000fd5b7f4e487b7100000000000000000000000000000000000000000000000000000000600052601260045260246000fd5b7f4e487b7100000000000000000000000000000000000000000000000000000000600052602260045260246000fd5b7f4e487b7100000000000000000000000000000000000000000000000000000000600052604160045260246000fd5b6000601f19601f8301169050919050565b7f596f752068617665206e6f7420476f6c64656e20506173730000000000000000600082015250565b7f4e6f7420656e6f756768206d6f6e657900000000000000000000000000000000600082015250565b7f5175616e74697479206d7573742062652067726574616572207468616e203000600082015250565b7f4552433732313a207472616e7366657220746f206e6f6e20455243373231526560008201527f63656976657220696d706c656d656e7465720000000000000000000000000000602082015250565b7f4f776e61626c653a206e6577206f776e657220697320746865207a65726f206160008201527f6464726573730000000000000000000000000000000000000000000000000000602082015250565b7f4552433732313a207472616e736665722066726f6d20696e636f72726563742060008201527f6f776e6572000000000000000000000000000000000000000000000000000000602082015250565b7f4552433732313a20746f6b656e20616c7265616479206d696e74656400000000600082015250565b7f4578636565647320616c6c6f77616e6365000000000000000000000000000000600082015250565b7f4f472073616c6520686176656e27742073746172746564000000000000000000600082015250565b7f4552433732313a207472616e7366657220746f20746865207a65726f2061646460008201527f7265737300000000000000000000000000000000000000000000000000000000602082015250565b7f4552433732313a20617070726f766520746f2063616c6c657200000000000000600082015250565b7f596f752068617665206e6f742053696c76657220506173730000000000000000600082015250565b7f5075626c696373616c6520686176656e27742073746172746564000000000000600082015250565b7f4578636565647320746f74616c20737570706c79000000000000000000000000600082015250565b7f4552433732313a206f70657261746f7220717565727920666f72206e6f6e657860008201527f697374656e7420746f6b656e0000000000000000000000000000000000000000602082015250565b7f4552433732313a20617070726f76652063616c6c6572206973206e6f74206f7760008201527f6e6572206e6f7220617070726f76656420666f7220616c6c0000000000000000602082015250565b7f4552433732313a2062616c616e636520717565727920666f7220746865207a6560008201527f726f206164647265737300000000000000000000000000000000000000000000602082015250565b7f4552433732313a206f776e657220717565727920666f72206e6f6e657869737460008201527f656e7420746f6b656e0000000000000000000000000000000000000000000000602082015250565b7f596f7520646f6e74206861766520656e6f756768206d696e7420706173730000600082015250565b7f4552433732313a206d696e7420746f20746865207a65726f2061646472657373600082015250565b7f4552433732313a20617070726f76656420717565727920666f72206e6f6e657860008201527f697374656e7420746f6b656e0000000000000000000000000000000000000000602082015250565b7f50726573616c6520686176656e27742073746172746564000000000000000000600082015250565b7f4f776e61626c653a2063616c6c6572206973206e6f7420746865206f776e6572600082015250565b7f4552433732314d657461646174613a2055524920717565727920666f72206e6f60008201527f6e6578697374656e7420746f6b656e0000000000000000000000000000000000602082015250565b7f4552433732313a20617070726f76616c20746f2063757272656e74206f776e6560008201527f7200000000000000000000000000000000000000000000000000000000000000602082015250565b7f4e6f7420616c6c6f776564206f726967696e0000000000000000000000000000600082015250565b7f4552433732313a207472616e736665722063616c6c6572206973206e6f74206f60008201527f776e6572206e6f7220617070726f766564000000000000000000000000000000602082015250565b7f526f79616c747920746f6f20686967682e000000000000000000000000000000600082015250565b614c0c81614319565b8114614c1757600080fd5b50565b614c238161432b565b8114614c2e57600080fd5b50565b614c3a81614337565b8114614c4557600080fd5b50565b614c5181614383565b8114614c5c57600080fd5b50565b614c6881614392565b8114614c7357600080fd5b5056fea2646970667358221220961a6cb5cf8cea1ce45b69c133a942afa9fc17949b1e632225b4fe26af8a901d64736f6c63430008040033",
  "linkReferences": {},
  "deployedLinkReferences": {}
}