{
  "_format": "hh-sol-artifact-1",
  "contractName": "mintPass",
  "sourceName": "contracts/testpass.sol",
  "abi": [
    {
      "inputs": [
        {
          "internalType": "string",
          "name": "name",
          "type": "string"
        },
        {
          "internalType": "string",
          "name": "symbol",
          "type": "string"
        },
        {
          "internalType": "string",
          "name": "_GOLD_BASE_URI",
          "type": "string"
        },
        {
          "internalType": "string",
          "name": "_SILVER_BASE_URI",
          "type": "string"
        }
      ],
      "stateMutability": "nonpayable",
      "type": "constructor"
    },
    {
      "inputs": [],
      "name": "InvalidMerkleProof",
      "type": "error"
    },
    {
      "anonymous": false,
      "inputs": [
        {
          "indexed": true,
          "internalType": "address",
          "name": "owner",
          "type": "address"
        },
        {
          "indexed": true,
          "internalType": "address",
          "name": "approved",
          "type": "address"
        },
        {
          "indexed": true,
          "internalType": "uint256",
          "name": "tokenId",
          "type": "uint256"
        }
      ],
      "name": "Approval",
      "type": "event"
    },
    {
      "anonymous": false,
      "inputs": [
        {
          "indexed": true,
          "internalType": "address",
          "name": "owner",
          "type": "address"
        },
        {
          "indexed": true,
          "internalType": "address",
          "name": "operator",
          "type": "address"
        },
        {
          "indexed": false,
          "internalType": "bool",
          "name": "approved",
          "type": "bool"
        }
      ],
      "name": "ApprovalForAll",
      "type": "event"
    },
    {
      "anonymous": false,
      "inputs": [
        {
          "indexed": true,
          "internalType": "address",
          "name": "previousOwner",
          "type": "address"
        },
        {
          "indexed": true,
          "internalType": "address",
          "name": "newOwner",
          "type": "address"
        }
      ],
      "name": "OwnershipTransferred",
      "type": "event"
    },
    {
      "anonymous": false,
      "inputs": [
        {
          "indexed": true,
          "internalType": "address",
          "name": "from",
          "type": "address"
        },
        {
          "indexed": true,
          "internalType": "address",
          "name": "to",
          "type": "address"
        },
        {
          "indexed": true,
          "internalType": "uint256",
          "name": "tokenId",
          "type": "uint256"
        }
      ],
      "name": "Transfer",
      "type": "event"
    },
    {
      "inputs": [],
      "name": "GOLDEN_ROOT",
      "outputs": [
        {
          "internalType": "bytes32",
          "name": "",
          "type": "bytes32"
        }
      ],
      "stateMutability": "view",
      "type": "function"
    },
    {
      "inputs": [],
      "name": "IS_SALE_ACTIVE",
      "outputs": [
        {
          "internalType": "bool",
          "name": "",
          "type": "bool"
        }
      ],
      "stateMutability": "view",
      "type": "function"
    },
    {
      "inputs": [],
      "name": "MAX_SUPPLY",
      "outputs": [
        {
          "internalType": "uint256",
          "name": "",
          "type": "uint256"
        }
      ],
      "stateMutability": "view",
      "type": "function"
    },
    {
      "inputs": [],
      "name": "SILVER_ROOT",
      "outputs": [
        {
          "internalType": "bytes32",
          "name": "",
          "type": "bytes32"
        }
      ],
      "stateMutability": "view",
      "type": "function"
    },
    {
      "inputs": [
        {
          "internalType": "address",
          "name": "to",
          "type": "address"
        },
        {
          "internalType": "uint256",
          "name": "tokenId",
          "type": "uint256"
        }
      ],
      "name": "approve",
      "outputs": [],
      "stateMutability": "nonpayable",
      "type": "function"
    },
    {
      "inputs": [
        {
          "internalType": "address",
          "name": "owner",
          "type": "address"
        }
      ],
      "name": "balanceOf",
      "outputs": [
        {
          "internalType": "uint256",
          "name": "",
          "type": "uint256"
        }
      ],
      "stateMutability": "view",
      "type": "function"
    },
    {
      "inputs": [
        {
          "internalType": "uint256",
          "name": "tokenId",
          "type": "uint256"
        }
      ],
      "name": "burn",
      "outputs": [],
      "stateMutability": "nonpayable",
      "type": "function"
    },
    {
      "inputs": [
        {
          "internalType": "uint256",
          "name": "tokenId",
          "type": "uint256"
        }
      ],
      "name": "getApproved",
      "outputs": [
        {
          "internalType": "address",
          "name": "",
          "type": "address"
        }
      ],
      "stateMutability": "view",
      "type": "function"
    },
    {
      "inputs": [
        {
          "internalType": "address",
          "name": "owner",
          "type": "address"
        },
        {
          "internalType": "address",
          "name": "operator",
          "type": "address"
        }
      ],
      "name": "isApprovedForAll",
      "outputs": [
        {
          "internalType": "bool",
          "name": "",
          "type": "bool"
        }
      ],
      "stateMutability": "view",
      "type": "function"
    },
    {
      "inputs": [
        {
          "internalType": "uint256",
          "name": "tokenId",
          "type": "uint256"
        }
      ],
      "name": "isGold",
      "outputs": [
        {
          "internalType": "bool",
          "name": "",
          "type": "bool"
        }
      ],
      "stateMutability": "view",
      "type": "function"
    },
    {
      "inputs": [],
      "name": "name",
      "outputs": [
        {
          "internalType": "string",
          "name": "",
          "type": "string"
        }
      ],
      "stateMutability": "view",
      "type": "function"
    },
    {
      "inputs": [],
      "name": "owner",
      "outputs": [
        {
          "internalType": "address",
          "name": "",
          "type": "address"
        }
      ],
      "stateMutability": "view",
      "type": "function"
    },
    {
      "inputs": [
        {
          "internalType": "uint256",
          "name": "numberOfTokens",
          "type": "uint256"
        },
        {
          "internalType": "bool",
          "name": "_isGold",
          "type": "bool"
        }
      ],
      "name": "ownerMint",
      "outputs": [],
      "stateMutability": "nonpayable",
      "type": "function"
    },
    {
      "inputs": [
        {
          "internalType": "uint256",
          "name": "tokenId",
          "type": "uint256"
        }
      ],
      "name": "ownerOf",
      "outputs": [
        {
          "internalType": "address",
          "name": "",
          "type": "address"
        }
      ],
      "stateMutability": "view",
      "type": "function"
    },
    {
      "inputs": [
        {
          "internalType": "uint256",
          "name": "allowance",
          "type": "uint256"
        },
        {
          "internalType": "uint256",
          "name": "quantity",
          "type": "uint256"
        },
        {
          "internalType": "bytes32[]",
          "name": "proof",
          "type": "bytes32[]"
        }
      ],
      "name": "privateSale",
      "outputs": [],
      "stateMutability": "nonpayable",
      "type": "function"
    },
    {
      "inputs": [],
      "name": "renounceOwnership",
      "outputs": [],
      "stateMutability": "nonpayable",
      "type": "function"
    },
    {
      "inputs": [
        {
          "internalType": "address",
          "name": "from",
          "type": "address"
        },
        {
          "internalType": "address",
          "name": "to",
          "type": "address"
        },
        {
          "internalType": "uint256",
          "name": "tokenId",
          "type": "uint256"
        }
      ],
      "name": "safeTransferFrom",
      "outputs": [],
      "stateMutability": "nonpayable",
      "type": "function"
    },
    {
      "inputs": [
        {
          "internalType": "address",
          "name": "from",
          "type": "address"
        },
        {
          "internalType": "address",
          "name": "to",
          "type": "address"
        },
        {
          "internalType": "uint256",
          "name": "tokenId",
          "type": "uint256"
        },
        {
          "internalType": "bytes",
          "name": "_data",
          "type": "bytes"
        }
      ],
      "name": "safeTransferFrom",
      "outputs": [],
      "stateMutability": "nonpayable",
      "type": "function"
    },
    {
      "inputs": [
        {
          "internalType": "address",
          "name": "operator",
          "type": "address"
        },
        {
          "internalType": "bool",
          "name": "approved",
          "type": "bool"
        }
      ],
      "name": "setApprovalForAll",
      "outputs": [],
      "stateMutability": "nonpayable",
      "type": "function"
    },
    {
      "inputs": [
        {
          "internalType": "string",
          "name": "newUri",
          "type": "string"
        }
      ],
      "name": "setGoldenBaseURI",
      "outputs": [],
      "stateMutability": "nonpayable",
      "type": "function"
    },
    {
      "inputs": [
        {
          "internalType": "bytes32",
          "name": "_GOLDEN_ROOT",
          "type": "bytes32"
        }
      ],
      "name": "setMerkleGoldenRoot",
      "outputs": [],
      "stateMutability": "nonpayable",
      "type": "function"
    },
    {
      "inputs": [
        {
          "internalType": "bytes32",
          "name": "_SILVER_ROOT",
          "type": "bytes32"
        }
      ],
      "name": "setMerkleSilverRoot",
      "outputs": [],
      "stateMutability": "nonpayable",
      "type": "function"
    },
    {
      "inputs": [
        {
          "internalType": "string",
          "name": "newUri",
          "type": "string"
        }
      ],
      "name": "setSilverBaseURI",
      "outputs": [],
      "stateMutability": "nonpayable",
      "type": "function"
    },
    {
      "inputs": [
        {
          "internalType": "bytes4",
          "name": "interfaceId",
          "type": "bytes4"
        }
      ],
      "name": "supportsInterface",
      "outputs": [
        {
          "internalType": "bool",
          "name": "",
          "type": "bool"
        }
      ],
      "stateMutability": "view",
      "type": "function"
    },
    {
      "inputs": [],
      "name": "symbol",
      "outputs": [
        {
          "internalType": "string",
          "name": "",
          "type": "string"
        }
      ],
      "stateMutability": "view",
      "type": "function"
    },
    {
      "inputs": [],
      "name": "toggleSale",
      "outputs": [],
      "stateMutability": "nonpayable",
      "type": "function"
    },
    {
      "inputs": [
        {
          "internalType": "uint256",
          "name": "index",
          "type": "uint256"
        }
      ],
      "name": "tokenByIndex",
      "outputs": [
        {
          "internalType": "uint256",
          "name": "",
          "type": "uint256"
        }
      ],
      "stateMutability": "view",
      "type": "function"
    },
    {
      "inputs": [
        {
          "internalType": "address",
          "name": "owner",
          "type": "address"
        },
        {
          "internalType": "uint256",
          "name": "index",
          "type": "uint256"
        }
      ],
      "name": "tokenOfOwnerByIndex",
      "outputs": [
        {
          "internalType": "uint256",
          "name": "",
          "type": "uint256"
        }
      ],
      "stateMutability": "view",
      "type": "function"
    },
    {
      "inputs": [
        {
          "internalType": "uint256",
          "name": "tokenId",
          "type": "uint256"
        }
      ],
      "name": "tokenURI",
      "outputs": [
        {
          "internalType": "string",
          "name": "",
          "type": "string"
        }
      ],
      "stateMutability": "view",
      "type": "function"
    },
    {
      "inputs": [
        {
          "internalType": "address",
          "name": "_owner",
          "type": "address"
        }
      ],
      "name": "tokensOfOwner",
      "outputs": [
        {
          "internalType": "uint256[]",
          "name": "",
          "type": "uint256[]"
        }
      ],
      "stateMutability": "view",
      "type": "function"
    },
    {
      "inputs": [],
      "name": "totalSupply",
      "outputs": [
        {
          "internalType": "uint256",
          "name": "",
          "type": "uint256"
        }
      ],
      "stateMutability": "view",
      "type": "function"
    },
    {
      "inputs": [
        {
          "internalType": "address",
          "name": "from",
          "type": "address"
        },
        {
          "internalType": "address",
          "name": "to",
          "type": "address"
        },
        {
          "internalType": "uint256",
          "name": "tokenId",
          "type": "uint256"
        }
      ],
      "name": "transferFrom",
      "outputs": [],
      "stateMutability": "nonpayable",
      "type": "function"
    },
    {
      "inputs": [
        {
          "internalType": "address",
          "name": "newOwner",
          "type": "address"
        }
      ],
      "name": "transferOwnership",
      "outputs": [],
      "stateMutability": "nonpayable",
      "type": "function"
    }
  ],
  "bytecode": "0x60806040526000600e60006101000a81548160ff0219169083151502179055503480156200002c57600080fd5b5060405162004b7a38038062004b7a833981810160405281019062000052919062000301565b838381600090805190602001906200006c929190620001df565b50806001908051906020019062000085929190620001df565b505050620000a86200009c620000fb60201b60201c565b6200010360201b60201c565b8160119080519060200190620000c0929190620001df565b508060129080519060200190620000d9929190620001df565b50620000f1600b620001c960201b620019061760201c565b5050505062000541565b600033905090565b6000600a60009054906101000a900473ffffffffffffffffffffffffffffffffffffffff16905081600a60006101000a81548173ffffffffffffffffffffffffffffffffffffffff021916908373ffffffffffffffffffffffffffffffffffffffff1602179055508173ffffffffffffffffffffffffffffffffffffffff168173ffffffffffffffffffffffffffffffffffffffff167f8be0079c531659141344cd1fd0a4f28419497f9722a3daafe3b4186f6b6457e060405160405180910390a35050565b6001816000016000828254019250508190555050565b828054620001ed9062000466565b90600052602060002090601f0160209004810192826200021157600085556200025d565b82601f106200022c57805160ff19168380011785556200025d565b828001600101855582156200025d579182015b828111156200025c5782518255916020019190600101906200023f565b5b5090506200026c919062000270565b5090565b5b808211156200028b57600081600090555060010162000271565b5090565b6000620002a6620002a084620003fa565b620003d1565b905082815260208101848484011115620002bf57600080fd5b620002cc84828562000430565b509392505050565b600082601f830112620002e657600080fd5b8151620002f88482602086016200028f565b91505092915050565b600080600080608085870312156200031857600080fd5b600085015167ffffffffffffffff8111156200033357600080fd5b6200034187828801620002d4565b945050602085015167ffffffffffffffff8111156200035f57600080fd5b6200036d87828801620002d4565b935050604085015167ffffffffffffffff8111156200038b57600080fd5b6200039987828801620002d4565b925050606085015167ffffffffffffffff811115620003b757600080fd5b620003c587828801620002d4565b91505092959194509250565b6000620003dd620003f0565b9050620003eb82826200049c565b919050565b6000604051905090565b600067ffffffffffffffff82111562000418576200041762000501565b5b620004238262000530565b9050602081019050919050565b60005b838110156200045057808201518184015260208101905062000433565b8381111562000460576000848401525b50505050565b600060028204905060018216806200047f57607f821691505b60208210811415620004965762000495620004d2565b5b50919050565b620004a78262000530565b810181811067ffffffffffffffff82111715620004c957620004c862000501565b5b80604052505050565b7f4e487b7100000000000000000000000000000000000000000000000000000000600052602260045260246000fd5b7f4e487b7100000000000000000000000000000000000000000000000000000000600052604160045260246000fd5b6000601f19601f8301169050919050565b61462980620005516000396000f3fe608060405234801561001057600080fd5b50600436106101fb5760003560e01c80636f37b83f1161011a5780638e076582116100ad578063b88d4fde1161007c578063b88d4fde1461059c578063c87b56dd146105b8578063c8ce58f8146105e8578063e985e9c514610604578063f2fde38b14610634576101fb565b80638e0765821461052a57806395d89b4114610546578063a22cb46514610564578063b157a3f614610580576101fb565b806378fbbcd4116100e957806378fbbcd4146104b65780637d8966e4146104d25780638462151c146104dc5780638da5cb5b1461050c576101fb565b80636f37b83f1461044257806370a082311461045e578063715018a61461048e57806376d02b7114610498576101fb565b806332cb6b0c116101925780634f6ccce7116101615780634f6ccce7146103a857806354a2005b146103d85780636352211e146103f6578063642eb6d214610426576101fb565b806332cb6b0c1461032257806342842e0e1461034057806342966c681461035c5780634878f78f14610378576101fb565b8063095ea7b3116101ce578063095ea7b31461029c57806318160ddd146102b857806323b872dd146102d65780632f745c59146102f2576101fb565b806301ffc9a71461020057806306cf7c3c1461023057806306fdde031461024e578063081812fc1461026c575b600080fd5b61021a60048036038101906102159190613198565b610650565b604051610227919061385a565b60405180910390f35b6102386106ca565b6040516102459190613875565b60405180910390f35b6102566106d0565b6040516102639190613890565b60405180910390f35b6102866004803603810190610281919061322b565b610762565b60405161029391906137d1565b60405180910390f35b6102b660048036038101906102b19190613133565b6107e7565b005b6102c06108ff565b6040516102cd9190613bb2565b60405180910390f35b6102f060048036038101906102eb919061302d565b61091c565b005b61030c60048036038101906103079190613133565b61097c565b6040516103199190613bb2565b60405180910390f35b61032a610a21565b6040516103379190613bb2565b60405180910390f35b61035a6004803603810190610355919061302d565b610a27565b005b6103766004803603810190610371919061322b565b610a47565b005b610392600480360381019061038d919061322b565b610aad565b60405161039f919061385a565b60405180910390f35b6103c260048036038101906103bd919061322b565b610ad7565b6040516103cf9190613bb2565b60405180910390f35b6103e0610b6e565b6040516103ed9190613875565b60405180910390f35b610410600480360381019061040b919061322b565b610b74565b60405161041d91906137d1565b60405180910390f35b610440600480360381019061043b9190613290565b610c26565b005b61045c6004803603810190610457919061316f565b610e78565b005b61047860048036038101906104739190612fc8565b610efe565b6040516104859190613bb2565b60405180910390f35b610496610fb6565b005b6104a061103e565b6040516104ad919061385a565b60405180910390f35b6104d060048036038101906104cb91906131ea565b611051565b005b6104da6110e7565b005b6104f660048036038101906104f19190612fc8565b61118f565b6040516105039190613838565b60405180910390f35b61051461130b565b60405161052191906137d1565b60405180910390f35b610544600480360381019061053f9190613254565b611335565b005b61054e6113bf565b60405161055b9190613890565b60405180910390f35b61057e600480360381019061057991906130f7565b611451565b005b61059a6004803603810190610595919061316f565b611467565b005b6105b660048036038101906105b1919061307c565b6114ed565b005b6105d260048036038101906105cd919061322b565b61154f565b6040516105df9190613890565b60405180910390f35b61060260048036038101906105fd91906131ea565b6116e4565b005b61061e60048036038101906106199190612ff1565b61177a565b60405161062b919061385a565b60405180910390f35b61064e60048036038101906106499190612fc8565b61180e565b005b60007f780e9d63000000000000000000000000000000000000000000000000000000007bffffffffffffffffffffffffffffffffffffffffffffffffffffffff1916827bffffffffffffffffffffffffffffffffffffffffffffffffffffffff191614806106c357506106c28261191c565b5b9050919050565b600d5481565b6060600080546106df90613e0f565b80601f016020809104026020016040519081016040528092919081815260200182805461070b90613e0f565b80156107585780601f1061072d57610100808354040283529160200191610758565b820191906000526020600020905b81548152906001019060200180831161073b57829003601f168201915b5050505050905090565b600061076d826119fe565b6107ac576040517f08c379a00000000000000000000000000000000000000000000000000000000081526004016107a390613ab2565b60405180910390fd5b6004600083815260200190815260200160002060009054906101000a900473ffffffffffffffffffffffffffffffffffffffff169050919050565b60006107f282610b74565b90508073ffffffffffffffffffffffffffffffffffffffff168373ffffffffffffffffffffffffffffffffffffffff161415610863576040517f08c379a000000000000000000000000000000000000000000000000000000000815260040161085a90613b32565b60405180910390fd5b8073ffffffffffffffffffffffffffffffffffffffff16610882611a6a565b73ffffffffffffffffffffffffffffffffffffffff1614806108b157506108b0816108ab611a6a565b61177a565b5b6108f0576040517f08c379a00000000000000000000000000000000000000000000000000000000081526004016108e790613a12565b60405180910390fd5b6108fa8383611a72565b505050565b6000600161090d600b611b2b565b6109179190613d1b565b905090565b61092d610927611a6a565b82611b39565b61096c576040517f08c379a000000000000000000000000000000000000000000000000000000000815260040161096390613b72565b60405180910390fd5b610977838383611c17565b505050565b600061098783610efe565b82106109c8576040517f08c379a00000000000000000000000000000000000000000000000000000000081526004016109bf906138b2565b60405180910390fd5b600660008473ffffffffffffffffffffffffffffffffffffffff1673ffffffffffffffffffffffffffffffffffffffff168152602001908152602001600020600083815260200190815260200160002054905092915050565b6109c481565b610a42838383604051806020016040528060008152506114ed565b505050565b610a58610a52611a6a565b82611b39565b610a97576040517f08c379a0000000000000000000000000000000000000000000000000000000008152600401610a8e90613b12565b60405180910390fd5b610aa081611e7e565b610aaa600b611f9b565b50565b60006010600083815260200190815260200160002060009054906101000a900460ff169050919050565b6000610ae1611ff7565b8210610b22576040517f08c379a0000000000000000000000000000000000000000000000000000000008152600401610b1990613b92565b60405180910390fd5b60088281548110610b5c577f4e487b7100000000000000000000000000000000000000000000000000000000600052603260045260246000fd5b90600052602060002001549050919050565b600c5481565b6000806002600084815260200190815260200160002060009054906101000a900473ffffffffffffffffffffffffffffffffffffffff169050600073ffffffffffffffffffffffffffffffffffffffff168173ffffffffffffffffffffffffffffffffffffffff161415610c1d576040517f08c379a0000000000000000000000000000000000000000000000000000000008152600401610c1490613a52565b60405180910390fd5b80915050919050565b3273ffffffffffffffffffffffffffffffffffffffff163373ffffffffffffffffffffffffffffffffffffffff1614610c94576040517f08c379a0000000000000000000000000000000000000000000000000000000008152600401610c8b90613b52565b60405180910390fd5b600e60009054906101000a900460ff16610ce3576040517f08c379a0000000000000000000000000000000000000000000000000000000008152600401610cda90613a72565b60405180910390fd5b8383600f60003373ffffffffffffffffffffffffffffffffffffffff1673ffffffffffffffffffffffffffffffffffffffff16815260200190815260200160002054610d2f9190613cc5565b1115610d70576040517f08c379a0000000000000000000000000000000000000000000000000000000008152600401610d6790613972565b60405180910390fd5b6000610d7c600b611b2b565b90506109c48110610dc2576040517f08c379a0000000000000000000000000000000000000000000000000000000008152600401610db9906139d2565b60405180910390fd5b610dcd838387612004565b15610e005760005b84811015610dfa57610de76001612066565b8080610df290613e72565b915050610dd5565b50610e71565b610e0b83838761210c565b15610e3e5760005b84811015610e3857610e256000612066565b8080610e3090613e72565b915050610e13565b50610e70565b6040517fb05e92fa00000000000000000000000000000000000000000000000000000000815260040160405180910390fd5b5b5050505050565b610e80611a6a565b73ffffffffffffffffffffffffffffffffffffffff16610e9e61130b565b73ffffffffffffffffffffffffffffffffffffffff1614610ef4576040517f08c379a0000000000000000000000000000000000000000000000000000000008152600401610eeb90613ad2565b60405180910390fd5b80600c8190555050565b60008073ffffffffffffffffffffffffffffffffffffffff168273ffffffffffffffffffffffffffffffffffffffff161415610f6f576040517f08c379a0000000000000000000000000000000000000000000000000000000008152600401610f6690613a32565b60405180910390fd5b600360008373ffffffffffffffffffffffffffffffffffffffff1673ffffffffffffffffffffffffffffffffffffffff168152602001908152602001600020549050919050565b610fbe611a6a565b73ffffffffffffffffffffffffffffffffffffffff16610fdc61130b565b73ffffffffffffffffffffffffffffffffffffffff1614611032576040517f08c379a000000000000000000000000000000000000000000000000000000000815260040161102990613ad2565b60405180910390fd5b61103c600061216e565b565b600e60009054906101000a900460ff1681565b611059611a6a565b73ffffffffffffffffffffffffffffffffffffffff1661107761130b565b73ffffffffffffffffffffffffffffffffffffffff16146110cd576040517f08c379a00000000000000000000000000000000000000000000000000000000081526004016110c490613ad2565b60405180910390fd5b80601190805190602001906110e3929190612d8d565b5050565b6110ef611a6a565b73ffffffffffffffffffffffffffffffffffffffff1661110d61130b565b73ffffffffffffffffffffffffffffffffffffffff1614611163576040517f08c379a000000000000000000000000000000000000000000000000000000000815260040161115a90613ad2565b60405180910390fd5b600e60009054906101000a900460ff1615600e60006101000a81548160ff021916908315150217905550565b6060600061119c83610efe565b9050600081141561121f57600067ffffffffffffffff8111156111e8577f4e487b7100000000000000000000000000000000000000000000000000000000600052604160045260246000fd5b6040519080825280602002602001820160405280156112165781602001602082028036833780820191505090505b50915050611306565b60008167ffffffffffffffff811115611261577f4e487b7100000000000000000000000000000000000000000000000000000000600052604160045260246000fd5b60405190808252806020026020018201604052801561128f5781602001602082028036833780820191505090505b50905060005b828110156112ff576112a7858261097c565b8282815181106112e0577f4e487b7100000000000000000000000000000000000000000000000000000000600052603260045260246000fd5b60200260200101818152505080806112f790613e72565b915050611295565b5080925050505b919050565b6000600a60009054906101000a900473ffffffffffffffffffffffffffffffffffffffff16905090565b6000611341600b611b2b565b90506109c483826113529190613cc5565b10611392576040517f08c379a0000000000000000000000000000000000000000000000000000000008152600401611389906139d2565b60405180910390fd5b60005b838110156113b9576113a683612066565b80806113b190613e72565b915050611395565b50505050565b6060600180546113ce90613e0f565b80601f01602080910402602001604051908101604052809291908181526020018280546113fa90613e0f565b80156114475780601f1061141c57610100808354040283529160200191611447565b820191906000526020600020905b81548152906001019060200180831161142a57829003601f168201915b5050505050905090565b61146361145c611a6a565b8383612234565b5050565b61146f611a6a565b73ffffffffffffffffffffffffffffffffffffffff1661148d61130b565b73ffffffffffffffffffffffffffffffffffffffff16146114e3576040517f08c379a00000000000000000000000000000000000000000000000000000000081526004016114da90613ad2565b60405180910390fd5b80600d8190555050565b6114fe6114f8611a6a565b83611b39565b61153d576040517f08c379a000000000000000000000000000000000000000000000000000000000815260040161153490613b72565b60405180910390fd5b611549848484846123a1565b50505050565b606061155a826119fe565b611599576040517f08c379a000000000000000000000000000000000000000000000000000000000815260040161159090613af2565b60405180910390fd5b6010600083815260200190815260200160002060009054906101000a900460ff161561165157601180546115cc90613e0f565b80601f01602080910402602001604051908101604052809291908181526020018280546115f890613e0f565b80156116455780601f1061161a57610100808354040283529160200191611645565b820191906000526020600020905b81548152906001019060200180831161162857829003601f168201915b505050505090506116df565b6012805461165e90613e0f565b80601f016020809104026020016040519081016040528092919081815260200182805461168a90613e0f565b80156116d75780601f106116ac576101008083540402835291602001916116d7565b820191906000526020600020905b8154815290600101906020018083116116ba57829003601f168201915b505050505090505b919050565b6116ec611a6a565b73ffffffffffffffffffffffffffffffffffffffff1661170a61130b565b73ffffffffffffffffffffffffffffffffffffffff1614611760576040517f08c379a000000000000000000000000000000000000000000000000000000000815260040161175790613ad2565b60405180910390fd5b8060129080519060200190611776929190612d8d565b5050565b6000600560008473ffffffffffffffffffffffffffffffffffffffff1673ffffffffffffffffffffffffffffffffffffffff16815260200190815260200160002060008373ffffffffffffffffffffffffffffffffffffffff1673ffffffffffffffffffffffffffffffffffffffff16815260200190815260200160002060009054906101000a900460ff16905092915050565b611816611a6a565b73ffffffffffffffffffffffffffffffffffffffff1661183461130b565b73ffffffffffffffffffffffffffffffffffffffff161461188a576040517f08c379a000000000000000000000000000000000000000000000000000000000815260040161188190613ad2565b60405180910390fd5b600073ffffffffffffffffffffffffffffffffffffffff168173ffffffffffffffffffffffffffffffffffffffff1614156118fa576040517f08c379a00000000000000000000000000000000000000000000000000000000081526004016118f190613912565b60405180910390fd5b6119038161216e565b50565b6001816000016000828254019250508190555050565b60007f80ac58cd000000000000000000000000000000000000000000000000000000007bffffffffffffffffffffffffffffffffffffffffffffffffffffffff1916827bffffffffffffffffffffffffffffffffffffffffffffffffffffffff191614806119e757507f5b5e139f000000000000000000000000000000000000000000000000000000007bffffffffffffffffffffffffffffffffffffffffffffffffffffffff1916827bffffffffffffffffffffffffffffffffffffffffffffffffffffffff1916145b806119f757506119f6826123fd565b5b9050919050565b60008073ffffffffffffffffffffffffffffffffffffffff166002600084815260200190815260200160002060009054906101000a900473ffffffffffffffffffffffffffffffffffffffff1673ffffffffffffffffffffffffffffffffffffffff1614159050919050565b600033905090565b816004600083815260200190815260200160002060006101000a81548173ffffffffffffffffffffffffffffffffffffffff021916908373ffffffffffffffffffffffffffffffffffffffff160217905550808273ffffffffffffffffffffffffffffffffffffffff16611ae583610b74565b73ffffffffffffffffffffffffffffffffffffffff167f8c5be1e5ebec7d5bd14f71427d1e84f3dd0314c0f7b2291e5b200ac8c7c3b92560405160405180910390a45050565b600081600001549050919050565b6000611b44826119fe565b611b83576040517f08c379a0000000000000000000000000000000000000000000000000000000008152600401611b7a906139f2565b60405180910390fd5b6000611b8e83610b74565b90508073ffffffffffffffffffffffffffffffffffffffff168473ffffffffffffffffffffffffffffffffffffffff161480611bfd57508373ffffffffffffffffffffffffffffffffffffffff16611be584610762565b73ffffffffffffffffffffffffffffffffffffffff16145b80611c0e5750611c0d818561177a565b5b91505092915050565b8273ffffffffffffffffffffffffffffffffffffffff16611c3782610b74565b73ffffffffffffffffffffffffffffffffffffffff1614611c8d576040517f08c379a0000000000000000000000000000000000000000000000000000000008152600401611c8490613932565b60405180910390fd5b600073ffffffffffffffffffffffffffffffffffffffff168273ffffffffffffffffffffffffffffffffffffffff161415611cfd576040517f08c379a0000000000000000000000000000000000000000000000000000000008152600401611cf490613992565b60405180910390fd5b611d08838383612467565b611d13600082611a72565b6001600360008573ffffffffffffffffffffffffffffffffffffffff1673ffffffffffffffffffffffffffffffffffffffff1681526020019081526020016000206000828254611d639190613d1b565b925050819055506001600360008473ffffffffffffffffffffffffffffffffffffffff1673ffffffffffffffffffffffffffffffffffffffff1681526020019081526020016000206000828254611dba9190613cc5565b92505081905550816002600083815260200190815260200160002060006101000a81548173ffffffffffffffffffffffffffffffffffffffff021916908373ffffffffffffffffffffffffffffffffffffffff160217905550808273ffffffffffffffffffffffffffffffffffffffff168473ffffffffffffffffffffffffffffffffffffffff167fddf252ad1be2c89b69c2b068fc378daa952ba7f163c4a11628f55a4df523b3ef60405160405180910390a4611e7983838361257b565b505050565b6000611e8982610b74565b9050611e9781600084612467565b611ea2600083611a72565b6001600360008373ffffffffffffffffffffffffffffffffffffffff1673ffffffffffffffffffffffffffffffffffffffff1681526020019081526020016000206000828254611ef29190613d1b565b925050819055506002600083815260200190815260200160002060006101000a81549073ffffffffffffffffffffffffffffffffffffffff021916905581600073ffffffffffffffffffffffffffffffffffffffff168273ffffffffffffffffffffffffffffffffffffffff167fddf252ad1be2c89b69c2b068fc378daa952ba7f163c4a11628f55a4df523b3ef60405160405180910390a4611f978160008461257b565b5050565b60008160000154905060008111611fe7576040517f08c379a0000000000000000000000000000000000000000000000000000000008152600401611fde906138d2565b60405180910390fd5b6001810382600001819055505050565b6000600880549050905090565b600061205d848480806020026020016040519081016040528093929190818152602001838360200280828437600081840152601f19601f82011690508083019250505050505050600c546120583386612580565b6125b3565b90509392505050565b6000612072600b611b2b565b905061207e600b611906565b816010600083815260200190815260200160002060006101000a81548160ff021916908315150217905550600f60003373ffffffffffffffffffffffffffffffffffffffff1673ffffffffffffffffffffffffffffffffffffffff16815260200190815260200160002060008154809291906120f990613e72565b919050555061210833826125ca565b5050565b6000612165848480806020026020016040519081016040528093929190818152602001838360200280828437600081840152601f19601f82011690508083019250505050505050600d546121603386612580565b6125b3565b90509392505050565b6000600a60009054906101000a900473ffffffffffffffffffffffffffffffffffffffff16905081600a60006101000a81548173ffffffffffffffffffffffffffffffffffffffff021916908373ffffffffffffffffffffffffffffffffffffffff1602179055508173ffffffffffffffffffffffffffffffffffffffff168173ffffffffffffffffffffffffffffffffffffffff167f8be0079c531659141344cd1fd0a4f28419497f9722a3daafe3b4186f6b6457e060405160405180910390a35050565b8173ffffffffffffffffffffffffffffffffffffffff168373ffffffffffffffffffffffffffffffffffffffff1614156122a3576040517f08c379a000000000000000000000000000000000000000000000000000000000815260040161229a906139b2565b60405180910390fd5b80600560008573ffffffffffffffffffffffffffffffffffffffff1673ffffffffffffffffffffffffffffffffffffffff16815260200190815260200160002060008473ffffffffffffffffffffffffffffffffffffffff1673ffffffffffffffffffffffffffffffffffffffff16815260200190815260200160002060006101000a81548160ff0219169083151502179055508173ffffffffffffffffffffffffffffffffffffffff168373ffffffffffffffffffffffffffffffffffffffff167f17307eab39ab6107e8899845ad3d59bd9653f200f220920489ca2b5937696c3183604051612394919061385a565b60405180910390a3505050565b6123ac848484611c17565b6123b8848484846127a4565b6123f7576040517f08c379a00000000000000000000000000000000000000000000000000000000081526004016123ee906138f2565b60405180910390fd5b50505050565b60007f01ffc9a7000000000000000000000000000000000000000000000000000000007bffffffffffffffffffffffffffffffffffffffffffffffffffffffff1916827bffffffffffffffffffffffffffffffffffffffffffffffffffffffff1916149050919050565b61247283838361293b565b600073ffffffffffffffffffffffffffffffffffffffff168373ffffffffffffffffffffffffffffffffffffffff1614156124b5576124b081612940565b6124f4565b8173ffffffffffffffffffffffffffffffffffffffff168373ffffffffffffffffffffffffffffffffffffffff16146124f3576124f28382612989565b5b5b600073ffffffffffffffffffffffffffffffffffffffff168273ffffffffffffffffffffffffffffffffffffffff1614156125375761253281612af6565b612576565b8273ffffffffffffffffffffffffffffffffffffffff168273ffffffffffffffffffffffffffffffffffffffff1614612575576125748282612c39565b5b5b505050565b505050565b600081836040516020016125959291906137a5565b60405160208183030381529060405280519060200120905092915050565b6000826125c08584612cb8565b1490509392505050565b600073ffffffffffffffffffffffffffffffffffffffff168273ffffffffffffffffffffffffffffffffffffffff16141561263a576040517f08c379a000000000000000000000000000000000000000000000000000000000815260040161263190613a92565b60405180910390fd5b612643816119fe565b15612683576040517f08c379a000000000000000000000000000000000000000000000000000000000815260040161267a90613952565b60405180910390fd5b61268f60008383612467565b6001600360008473ffffffffffffffffffffffffffffffffffffffff1673ffffffffffffffffffffffffffffffffffffffff16815260200190815260200160002060008282546126df9190613cc5565b92505081905550816002600083815260200190815260200160002060006101000a81548173ffffffffffffffffffffffffffffffffffffffff021916908373ffffffffffffffffffffffffffffffffffffffff160217905550808273ffffffffffffffffffffffffffffffffffffffff16600073ffffffffffffffffffffffffffffffffffffffff167fddf252ad1be2c89b69c2b068fc378daa952ba7f163c4a11628f55a4df523b3ef60405160405180910390a46127a06000838361257b565b5050565b60006127c58473ffffffffffffffffffffffffffffffffffffffff16612d53565b1561292e578373ffffffffffffffffffffffffffffffffffffffff1663150b7a026127ee611a6a565b8786866040518563ffffffff1660e01b815260040161281094939291906137ec565b602060405180830381600087803b15801561282a57600080fd5b505af192505050801561285b57506040513d601f19601f8201168201806040525081019061285891906131c1565b60015b6128de573d806000811461288b576040519150601f19603f3d011682016040523d82523d6000602084013e612890565b606091505b506000815114156128d6576040517f08c379a00000000000000000000000000000000000000000000000000000000081526004016128cd906138f2565b60405180910390fd5b805181602001fd5b63150b7a0260e01b7bffffffffffffffffffffffffffffffffffffffffffffffffffffffff1916817bffffffffffffffffffffffffffffffffffffffffffffffffffffffff191614915050612933565b600190505b949350505050565b505050565b6008805490506009600083815260200190815260200160002081905550600881908060018154018082558091505060019003906000526020600020016000909190919091505550565b6000600161299684610efe565b6129a09190613d1b565b9050600060076000848152602001908152602001600020549050818114612a85576000600660008673ffffffffffffffffffffffffffffffffffffffff1673ffffffffffffffffffffffffffffffffffffffff168152602001908152602001600020600084815260200190815260200160002054905080600660008773ffffffffffffffffffffffffffffffffffffffff1673ffffffffffffffffffffffffffffffffffffffff168152602001908152602001600020600084815260200190815260200160002081905550816007600083815260200190815260200160002081905550505b6007600084815260200190815260200160002060009055600660008573ffffffffffffffffffffffffffffffffffffffff1673ffffffffffffffffffffffffffffffffffffffff16815260200190815260200160002060008381526020019081526020016000206000905550505050565b60006001600880549050612b0a9190613d1b565b9050600060096000848152602001908152602001600020549050600060088381548110612b60577f4e487b7100000000000000000000000000000000000000000000000000000000600052603260045260246000fd5b906000526020600020015490508060088381548110612ba8577f4e487b7100000000000000000000000000000000000000000000000000000000600052603260045260246000fd5b906000526020600020018190555081600960008381526020019081526020016000208190555060096000858152602001908152602001600020600090556008805480612c1d577f4e487b7100000000000000000000000000000000000000000000000000000000600052603160045260246000fd5b6001900381819060005260206000200160009055905550505050565b6000612c4483610efe565b905081600660008573ffffffffffffffffffffffffffffffffffffffff1673ffffffffffffffffffffffffffffffffffffffff168152602001908152602001600020600083815260200190815260200160002081905550806007600084815260200190815260200160002081905550505050565b60008082905060005b8451811015612d48576000858281518110612d05577f4e487b7100000000000000000000000000000000000000000000000000000000600052603260045260246000fd5b60200260200101519050808311612d2757612d208382612d76565b9250612d34565b612d318184612d76565b92505b508080612d4090613e72565b915050612cc1565b508091505092915050565b6000808273ffffffffffffffffffffffffffffffffffffffff163b119050919050565b600082600052816020526040600020905092915050565b828054612d9990613e0f565b90600052602060002090601f016020900481019282612dbb5760008555612e02565b82601f10612dd457805160ff1916838001178555612e02565b82800160010185558215612e02579182015b82811115612e01578251825591602001919060010190612de6565b5b509050612e0f9190612e13565b5090565b5b80821115612e2c576000816000905550600101612e14565b5090565b6000612e43612e3e84613bf2565b613bcd565b905082815260208101848484011115612e5b57600080fd5b612e66848285613dcd565b509392505050565b6000612e81612e7c84613c23565b613bcd565b905082815260208101848484011115612e9957600080fd5b612ea4848285613dcd565b509392505050565b600081359050612ebb81614580565b92915050565b60008083601f840112612ed357600080fd5b8235905067ffffffffffffffff811115612eec57600080fd5b602083019150836020820283011115612f0457600080fd5b9250929050565b600081359050612f1a81614597565b92915050565b600081359050612f2f816145ae565b92915050565b600081359050612f44816145c5565b92915050565b600081519050612f59816145c5565b92915050565b600082601f830112612f7057600080fd5b8135612f80848260208601612e30565b91505092915050565b600082601f830112612f9a57600080fd5b8135612faa848260208601612e6e565b91505092915050565b600081359050612fc2816145dc565b92915050565b600060208284031215612fda57600080fd5b6000612fe884828501612eac565b91505092915050565b6000806040838503121561300457600080fd5b600061301285828601612eac565b925050602061302385828601612eac565b9150509250929050565b60008060006060848603121561304257600080fd5b600061305086828701612eac565b935050602061306186828701612eac565b925050604061307286828701612fb3565b9150509250925092565b6000806000806080858703121561309257600080fd5b60006130a087828801612eac565b94505060206130b187828801612eac565b93505060406130c287828801612fb3565b925050606085013567ffffffffffffffff8111156130df57600080fd5b6130eb87828801612f5f565b91505092959194509250565b6000806040838503121561310a57600080fd5b600061311885828601612eac565b925050602061312985828601612f0b565b9150509250929050565b6000806040838503121561314657600080fd5b600061315485828601612eac565b925050602061316585828601612fb3565b9150509250929050565b60006020828403121561318157600080fd5b600061318f84828501612f20565b91505092915050565b6000602082840312156131aa57600080fd5b60006131b884828501612f35565b91505092915050565b6000602082840312156131d357600080fd5b60006131e184828501612f4a565b91505092915050565b6000602082840312156131fc57600080fd5b600082013567ffffffffffffffff81111561321657600080fd5b61322284828501612f89565b91505092915050565b60006020828403121561323d57600080fd5b600061324b84828501612fb3565b91505092915050565b6000806040838503121561326757600080fd5b600061327585828601612fb3565b925050602061328685828601612f0b565b9150509250929050565b600080600080606085870312156132a657600080fd5b60006132b487828801612fb3565b94505060206132c587828801612fb3565b935050604085013567ffffffffffffffff8111156132e257600080fd5b6132ee87828801612ec1565b925092505092959194509250565b60006133088383613770565b60208301905092915050565b61331d81613d4f565b82525050565b61333461332f82613d4f565b613ebb565b82525050565b600061334582613c64565b61334f8185613c92565b935061335a83613c54565b8060005b8381101561338b57815161337288826132fc565b975061337d83613c85565b92505060018101905061335e565b5085935050505092915050565b6133a181613d61565b82525050565b6133b081613d6d565b82525050565b60006133c182613c6f565b6133cb8185613ca3565b93506133db818560208601613ddc565b6133e481613f76565b840191505092915050565b60006133fa82613c7a565b6134048185613cb4565b9350613414818560208601613ddc565b61341d81613f76565b840191505092915050565b6000613435602b83613cb4565b915061344082613f94565b604082019050919050565b6000613458601b83613cb4565b915061346382613fe3565b602082019050919050565b600061347b603283613cb4565b91506134868261400c565b604082019050919050565b600061349e602683613cb4565b91506134a98261405b565b604082019050919050565b60006134c1602583613cb4565b91506134cc826140aa565b604082019050919050565b60006134e4601c83613cb4565b91506134ef826140f9565b602082019050919050565b6000613507601183613cb4565b915061351282614122565b602082019050919050565b600061352a602483613cb4565b91506135358261414b565b604082019050919050565b600061354d601983613cb4565b91506135588261419a565b602082019050919050565b6000613570601483613cb4565b915061357b826141c3565b602082019050919050565b6000613593602c83613cb4565b915061359e826141ec565b604082019050919050565b60006135b6603883613cb4565b91506135c18261423b565b604082019050919050565b60006135d9602a83613cb4565b91506135e48261428a565b604082019050919050565b60006135fc602983613cb4565b9150613607826142d9565b604082019050919050565b600061361f601b83613cb4565b915061362a82614328565b602082019050919050565b6000613642602083613cb4565b915061364d82614351565b602082019050919050565b6000613665602c83613cb4565b91506136708261437a565b604082019050919050565b6000613688602083613cb4565b9150613693826143c9565b602082019050919050565b60006136ab602f83613cb4565b91506136b6826143f2565b604082019050919050565b60006136ce602083613cb4565b91506136d982614441565b602082019050919050565b60006136f1602183613cb4565b91506136fc8261446a565b604082019050919050565b6000613714601283613cb4565b915061371f826144b9565b602082019050919050565b6000613737603183613cb4565b9150613742826144e2565b604082019050919050565b600061375a602c83613cb4565b915061376582614531565b604082019050919050565b61377981613dc3565b82525050565b61378881613dc3565b82525050565b61379f61379a82613dc3565b613edf565b82525050565b60006137b1828561378e565b6020820191506137c18284613323565b6014820191508190509392505050565b60006020820190506137e66000830184613314565b92915050565b60006080820190506138016000830187613314565b61380e6020830186613314565b61381b604083018561377f565b818103606083015261382d81846133b6565b905095945050505050565b60006020820190508181036000830152613852818461333a565b905092915050565b600060208201905061386f6000830184613398565b92915050565b600060208201905061388a60008301846133a7565b92915050565b600060208201905081810360008301526138aa81846133ef565b905092915050565b600060208201905081810360008301526138cb81613428565b9050919050565b600060208201905081810360008301526138eb8161344b565b9050919050565b6000602082019050818103600083015261390b8161346e565b9050919050565b6000602082019050818103600083015261392b81613491565b9050919050565b6000602082019050818103600083015261394b816134b4565b9050919050565b6000602082019050818103600083015261396b816134d7565b9050919050565b6000602082019050818103600083015261398b816134fa565b9050919050565b600060208201905081810360008301526139ab8161351d565b9050919050565b600060208201905081810360008301526139cb81613540565b9050919050565b600060208201905081810360008301526139eb81613563565b9050919050565b60006020820190508181036000830152613a0b81613586565b9050919050565b60006020820190508181036000830152613a2b816135a9565b9050919050565b60006020820190508181036000830152613a4b816135cc565b9050919050565b60006020820190508181036000830152613a6b816135ef565b9050919050565b60006020820190508181036000830152613a8b81613612565b9050919050565b60006020820190508181036000830152613aab81613635565b9050919050565b60006020820190508181036000830152613acb81613658565b9050919050565b60006020820190508181036000830152613aeb8161367b565b9050919050565b60006020820190508181036000830152613b0b8161369e565b9050919050565b60006020820190508181036000830152613b2b816136c1565b9050919050565b60006020820190508181036000830152613b4b816136e4565b9050919050565b60006020820190508181036000830152613b6b81613707565b9050919050565b60006020820190508181036000830152613b8b8161372a565b9050919050565b60006020820190508181036000830152613bab8161374d565b9050919050565b6000602082019050613bc7600083018461377f565b92915050565b6000613bd7613be8565b9050613be38282613e41565b919050565b6000604051905090565b600067ffffffffffffffff821115613c0d57613c0c613f47565b5b613c1682613f76565b9050602081019050919050565b600067ffffffffffffffff821115613c3e57613c3d613f47565b5b613c4782613f76565b9050602081019050919050565b6000819050602082019050919050565b600081519050919050565b600081519050919050565b600081519050919050565b6000602082019050919050565b600082825260208201905092915050565b600082825260208201905092915050565b600082825260208201905092915050565b6000613cd082613dc3565b9150613cdb83613dc3565b9250827fffffffffffffffffffffffffffffffffffffffffffffffffffffffffffffffff03821115613d1057613d0f613ee9565b5b828201905092915050565b6000613d2682613dc3565b9150613d3183613dc3565b925082821015613d4457613d43613ee9565b5b828203905092915050565b6000613d5a82613da3565b9050919050565b60008115159050919050565b6000819050919050565b60007fffffffff0000000000000000000000000000000000000000000000000000000082169050919050565b600073ffffffffffffffffffffffffffffffffffffffff82169050919050565b6000819050919050565b82818337600083830152505050565b60005b83811015613dfa578082015181840152602081019050613ddf565b83811115613e09576000848401525b50505050565b60006002820490506001821680613e2757607f821691505b60208210811415613e3b57613e3a613f18565b5b50919050565b613e4a82613f76565b810181811067ffffffffffffffff82111715613e6957613e68613f47565b5b80604052505050565b6000613e7d82613dc3565b91507fffffffffffffffffffffffffffffffffffffffffffffffffffffffffffffffff821415613eb057613eaf613ee9565b5b600182019050919050565b6000613ec682613ecd565b9050919050565b6000613ed882613f87565b9050919050565b6000819050919050565b7f4e487b7100000000000000000000000000000000000000000000000000000000600052601160045260246000fd5b7f4e487b7100000000000000000000000000000000000000000000000000000000600052602260045260246000fd5b7f4e487b7100000000000000000000000000000000000000000000000000000000600052604160045260246000fd5b6000601f19601f8301169050919050565b60008160601b9050919050565b7f455243373231456e756d657261626c653a206f776e657220696e646578206f7560008201527f74206f6620626f756e6473000000000000000000000000000000000000000000602082015250565b7f436f756e7465723a2064656372656d656e74206f766572666c6f770000000000600082015250565b7f4552433732313a207472616e7366657220746f206e6f6e20455243373231526560008201527f63656976657220696d706c656d656e7465720000000000000000000000000000602082015250565b7f4f776e61626c653a206e6577206f776e657220697320746865207a65726f206160008201527f6464726573730000000000000000000000000000000000000000000000000000602082015250565b7f4552433732313a207472616e736665722066726f6d20696e636f72726563742060008201527f6f776e6572000000000000000000000000000000000000000000000000000000602082015250565b7f4552433732313a20746f6b656e20616c7265616479206d696e74656400000000600082015250565b7f4578636565647320616c6c6f77616e6365000000000000000000000000000000600082015250565b7f4552433732313a207472616e7366657220746f20746865207a65726f2061646460008201527f7265737300000000000000000000000000000000000000000000000000000000602082015250565b7f4552433732313a20617070726f766520746f2063616c6c657200000000000000600082015250565b7f4578636565647320746f74616c20737570706c79000000000000000000000000600082015250565b7f4552433732313a206f70657261746f7220717565727920666f72206e6f6e657860008201527f697374656e7420746f6b656e0000000000000000000000000000000000000000602082015250565b7f4552433732313a20617070726f76652063616c6c6572206973206e6f74206f7760008201527f6e6572206e6f7220617070726f76656420666f7220616c6c0000000000000000602082015250565b7f4552433732313a2062616c616e636520717565727920666f7220746865207a6560008201527f726f206164647265737300000000000000000000000000000000000000000000602082015250565b7f4552433732313a206f776e657220717565727920666f72206e6f6e657869737460008201527f656e7420746f6b656e0000000000000000000000000000000000000000000000602082015250565b7f5072697661746573616c6520686176656e277420737461727465640000000000600082015250565b7f4552433732313a206d696e7420746f20746865207a65726f2061646472657373600082015250565b7f4552433732313a20617070726f76656420717565727920666f72206e6f6e657860008201527f697374656e7420746f6b656e0000000000000000000000000000000000000000602082015250565b7f4f776e61626c653a2063616c6c6572206973206e6f7420746865206f776e6572600082015250565b7f4552433732314d657461646174613a2055524920717565727920666f72206e6f60008201527f6e6578697374656e7420746f6b656e0000000000000000000000000000000000602082015250565b7f63616c6c6572206973206e6f74206f776e6572206e6f7220617070726f766564600082015250565b7f4552433732313a20617070726f76616c20746f2063757272656e74206f776e6560008201527f7200000000000000000000000000000000000000000000000000000000000000602082015250565b7f4e6f7420616c6c6f776564206f726967696e0000000000000000000000000000600082015250565b7f4552433732313a207472616e736665722063616c6c6572206973206e6f74206f60008201527f776e6572206e6f7220617070726f766564000000000000000000000000000000602082015250565b7f455243373231456e756d657261626c653a20676c6f62616c20696e646578206f60008201527f7574206f6620626f756e64730000000000000000000000000000000000000000602082015250565b61458981613d4f565b811461459457600080fd5b50565b6145a081613d61565b81146145ab57600080fd5b50565b6145b781613d6d565b81146145c257600080fd5b50565b6145ce81613d77565b81146145d957600080fd5b50565b6145e581613dc3565b81146145f057600080fd5b5056fea264697066735822122020ab98e38f8920da0fd766822565a698cc996214d47971776772ab182e2446bc64736f6c63430008040033",
  "linkReferences": {},
  "deployedLinkReferences": {}
}